:020000040800F2
:20000000D0060020A5170008A9010008A9010008A9010008A9010008A9010008A9010008FA
:20002000A9010008A9010008A90100082D020008A9010008A9010008A9010008A9010008AB
:20004000A9010008A9010008A9010008A9010008A9010008A9010008A9010008A901000810
:20006000A9010008A9010008A9010008A9010008A9010008A9010008A9010008A9010008F0
:20008000A9010008A9010008A9010008A9010008A9010008A9010008A9010008A9010008D0
:2000A000A9010008A9010008A9010008A9010008A9010008A9010008A9010008A9010008B0
:2000C000A9010008CD1D000831260008A9010008A9010008A9010008A9010008A9010008A3
:2000E000A9010008A9010008A9010008A9010008A9010008A9010008A9010008A901000870
:20010000A9010008A9010008A5120008A9010008A9010008A9010008A9010008A901000842
:20012000A9010008A9010008A9010008A9010008A9010008A9010008A9010008A90100082F
:20014000A9010008A9010008A9010008F13C0008A9010008A9010008A9010008A90100088C
:20016000A9010008A9010008A9010008A9010008A9010008A9010008A9010008A9010008EF
:20018000A9010008A9010008A9010008A9010008A9010008A9010008A9010008A9010008CF
:2001A000A9010008A90100082DE9F04F684600F0C5BE01B0BDE8F08F2DE9F14FC0F800D0B2
:2001C00010468847009A00211160FFF7F2BF000038B5036804461BB3EFF314839D0702D5C3
:2001E000104B186000DFEFF309814FF0FF330B600D4B8B61CB6903F08073CB61226850079A
:20020000A2F1200542BF43F40073A2F12405CB612022284601F0BBF885F309880023236090
:2002200038BD00BFD0060020B301000810B5034C2068FFF7CDFF0023236010BDD006002091
:2002400010B5084C0346014410468B4200D110BD13F8012B82EA102234F8122082EA002275
:2002600090B2F2E78662000813B500230446ADF8063000F0B9F804F17C0202210DF1060028
:2002800000F0D2F802B010BDF8B5104C104F4FF6FF75B4F87C30AB42264608D12388AB42E2
:2002A00011D02378022B07D02046FFF7DDFF8034BC42EED1002606E02A4680212046FFF79C
:2002C000BFFF0028F0D13046F8BD00BF00F8030800000408F8B5FFF7D7FF044600286FD054
:2002E00005884FF6FF73ED1A18BF0125364B4A2632460021184601F031F8034646700A2784
:200300006FF037061E76DF7607266FF047079E76DF7783F82E600B270C26022183F8207079
:2003200083F8336050278F26FF220170C174017583F8297001212C2783F83460234E82704B
:20034000417583F82B703C206FF02F07987583F82D70002037683679D975587683F827107F
:2003600083F82A0083F82C1083F82F1083F83010C3F8357083F83960588783F83C0083F827
:200380003E1083F83F2083F8412083F8422083F8432083F8452083F8462083F847202822B1
:2003A00083F8482075B16278022A0BD94A2A28BF4A22A11C981C023ABDE8F84000F09BBFAF
:2003C000054693E7F8BD00BFD406002086640008044AD36813F00103FBD13421D1601361A2
:2003E000704700BF003C0240054B1A69120641BF044A5A6002F188325A60FFF7E9BF00BF52
:20040000003C02402301674508B5FFF7E1FF054B58611A6942F042021A61BDE80840FFF79B
:20042000D7BF00BF003C024070B50C461546FFF7CFFF094E2D1A0444844205EB000200D1E4
:2004400070BD336943F00103336130F8023B1380FFF7BEFFF0E700BF003C024030B1044B19
:20046000044A1B681070181FFFF7B2BE704700BF040000202007002010B5084C23680A46B9
:20048000191D216001461846FFF796FE2368043B2360034B002218781A7010BD04000020AE
:2004A0002007002070B505460E46144600F0E0FF08B104F0010422463146284602F0A2FF76
:2004C000BDE87040FFF7CABFF7B51C4601AB0F46154602F0DBFF064601982CB1206030465A
:2004E000FFF7BCFF03B0F0BDA842F8D22A1A2146384400F033FFF2E708B503F057F8BDE871
:200500000840FFF7ABBF08B503F0E7F8BDE80840FFF7A4BF08B503F043FABDE80840FFF78E
:200520009DBF08B503F024FABDE80840FFF796BF10B9024B187870470120704708000020FC
:20054000044B1B78DB075DBF034B1869C0F3402000207047080000200008024000207047B9
:20056000F8B500F0DBFD084F084E0546FF21384600F054FBC4B2FF2C04D000F0CFFD431BA2
:20058000B342F3DD2046F8BD003800407FA8120110B5084C204600F021FB074B4FF48052D7
:2005A00020469A61FF2100F039FB2046BDE8104000F014BB003800400004024070B50E4645
:2005C000044690B300224FF40071FFF739FE0546FFF7C6FFFF282AD11748314600F017FB8B
:2005E000FD2E26D0144800F002FB04F5007623461148198849BA023489B200F008FBA64270
:20060000F5D10D4800F0EAFA29460B4800F0FFFA094800F0F4FA0848FF2100F0FFFA00F0C8
:200620001F00431F5842584170BD0546D0E70020FAE70120F8E700BF0038004038B50C4660
:20064000D0B90E4D2B78DB0714D4A9B90C4B4FF080529A61FFF784FFFF2808D0FFF798FF7F
:200660002B7843F001032B700124204638BDFFF78FFFFAE70324F8E70424F6E708000020ED
:2006800000040240F7B504460D4600F047FD224F06462248FF2100F0C1FAC3B2FF2B07D12E
:2006A00000F03CFD831BBB42F3DB002003B0F0BDFE2BFAD1194800F09AFA6619B6B2174809
:2006C0004FF6FF7100F0AAFA030A04F8023BA3B2B34204F8010CF2D14FF6FF710F4800F079
:2006E0009DFA0022030A8DF805002946601B8DF80430FFF7A5FD0221024601A8FFF7A0FDC8
:200700000446064800F06AFA044800F078FAB4FA84F04009CAE700BF80EE36000038004048
:20072000094A00235208824203F10103FAD85A01DB00064903F0380302F4807243F45173C5
:200740004A600B60704700BF40190100003800402DE9F04FDFF8D8B085B006460C460F0E98
:20076000C1F30748C1F307290325320609D4314A4FF080539361FFF7F3FEFF280BD0FF20CC
:2007800006E000217720FFF7E3FF30F00103EED005B0BDE8F08F06F07F0302A88DF8083049
:2007A0008DF809708DF80A808DF80B908DF80C40062100230246013911F0FF014FEA4303EF
:2007C0002FD143F001031C488DF80D304FF0060A12F8011B019200F01AFA0AF1FF3313F080
:2007E000FF0A1548019AF3D100F0F8F9124A4FF00A0AFF21104600F011FA0306014605D509
:200800000AF1FF3313F0FF0A0B4AF2D111F0880FC8B2BDD0013D15F0FF05B9D0FFF7B8FE6C
:20082000A3E710F801CB8CEA03031BF80330C2E7D86400080004024000380040F0B585B013
:20084000002840F0F9807D4D7D4B287840F0010028701B699A0540F1B3807A4A7A48136C40
:200860007A4E43F4804313640C21812200F094FB754805220D2100F037FC734802220D21AE
:2008800000F08AFB704805220E2100F02DFC6E4822220E2100F080FB6B4805220F2100F02E
:2008A00023FC02220F21684800F076FB4FF4C870FFF736FF654800F091F90A24FF21304623
:2008C000013C00F0ABF914F0FF04F7D121464020FFF73EFF0128014659D17B20FFF738FF1C
:2008E00020F00406012E52D14FF4D5714820FFF72FFF012866D1554F0426FF21384600F0BB
:200900008DF9013EC0B240EA042416F0FF06A4B2F3D1C4F30804B4F5D57F38D100F0FEFB77
:200920004B4E04464FF08041E920FFF711FF014640BB7A20FFF70CFF48BBFF21434800F04A
:200940006DF9FF210446414800F068F9FF213F4800F064F93D48FF2100F060F9230616D5F7
:2009600014F0400F3B4B14BF072203221A704FF400715020FFF7ECFE48B92B7823F0010334
:200980002B7004E000F0CAFB001BB042CADDFFF7FFFD297811F0010431D10A2000F0BBFA05
:2009A00046F2A810FFF7BCFE21464A20FFF7D0FE18B910216846FFF765FEFFF7E9FD28787D
:2009C00005B0F0BD234F02232146E9203B70FFF7BFFE30F0010316BF3E70E926412600F043
:2009E0009DFB1B4F044600213046FFF7B1FE0028BDD000F093FB001BB842F4DDC7E7134B4A
:200A0000114800221A600F4A136C23F4804313640C21202200F0C0FA0B4820220D2100F0EC
:200A2000BBFA094820220E2100F0B6FA064820220F2100F0B1FAC2E70420C1E708000020A7
:200A400000080240003802400004024000380040FF5025022C0700202DE9F74F89461746C3
:200A60001D46002843D1002B41D0DFF88C8098F80030DA073DD4214B1B785B0758BF7F020D
:200A8000012D14BF4FF0520A4FF0510A032639465046FFF75DFE0446B8B94B46AB464FF411
:200AA000007118460193FFF7EDFD18B1BBF1010B019B19D1012D03D000214C20FFF748FE22
:200AC000FFF766FDBBF1000F0AD0013E16F0FF06DDD198F8003043F0010388F80030012464
:200AE000204603B0BDE8F08F03F50073D7E70424F6E70324F4E700BF080000202C0700204F
:200B00002DE9F74F884615461E4600285DD1002B5BD0DFF8C09099F80030D90757D4DFF876
:200B2000B8A09AF800305A0758BF6D020327012E0ED129465820FFF70BFE044680BBFE21F2
:200B40004046FFF73BFD002839D1FFF721FD27E09AF800309B071DD129465920FFF7F8FD6F
:200B60000446E8B94346B346FC2118460193FFF725FD18B1BBF1010B019B1DD1FD21002098
:200B8000FFF71CFD0028E0D0FFF702FDBBF1000F06D116E03146D720FFF7DAFD0028DBD0E3
:200BA000013F17F0FF07C2D199F8003043F0010389F80030012404E003F50073D4E7FFF787
:200BC000E7FC204603B0BDE8F08F0424F9E70324F7E700BF080000202C070020836803F0D0
:200BE0008203022B01D1C368704700BFF6E708B5FFF7F4FF036843F40063036008BD08B563
:200C0000FFF7ECFF036823F40063036008BD83689B0701D5C160704700BFF8E783689A0781
:200C200006D5C1608368DB07FCD5C06880B2704700BFF3E703688B4238BF1A700368013318
:200C4000036070472DE9F04F87B01D464B1E8146904602900093C718C2461AF8012B52B930
:200C6000029BBB4200F201811A700298A0EB090007B0BDE8F08F252A05D0394602A8FFF790
:200C8000D9FFD046E8E7002634461CE0A2F16303152B26D8DFE803F074562525253F562517
:200CA000252525254A1125255B2558252511392A22D9582A15D144F4807444F0100437E077
:200CC00055F8046BC246D04618F8012B782A08D8622ADBD8302A0CD0E9D8232A06D02A2ACF
:200CE000EED0394602A8FFF7A5FFB5E744F48064E8E744F40064E5E7A2F13006424612F829
:200D0000013BA3F130010929DCD80A2101FB0636303E9046F2E79AF80130682B06BF44F419
:200D200080540AF1020844F40054CBE744F00804E00455F8043B04F4007225D5DBB224F4E3
:200D4000007435E044F4007444F00A04F0E755F8044B2644A6EB040A14F8012B5AB9BAF1AA
:200D6000000F7FF779AF2022394602A8FFF762FF0AF1FF3AF3E7394602A8FFF75BFFE9E7AD
:200D800055F8042BD2B2ACE7A10438D5002A34D01BB2002BD3DA200508D52D22394602A8C1
:200DA0000193FFF747FF019B24F40074013E5B42610512D504F01F0ABAF1080F02D0BAF1B6
:200DC000100F0AD13022394602A80193FFF732FFBAF1100F019B15D0013E0DF10C0AC3B9C9
:200DE00030238DF80C300DF10D0B14F4006F14BF30222022ABEB0A0328E09BB29FE7002A43
:200E00009DD0C6E778220193023EFFF713FF019BE3E7194A194914F4807F08BF1146D346D9
:200E200004F01F02B3FBF2F002FB103C11F80CC00BF801CB9C4662450346F3D9D5E7394647
:200E400002A80193FFF7F6FE019B013EB342F6DBA30504D52D22394602A8FFF7EBFED345D9
:200E60003FF4FAAE1BF8012DF5E7B9459CBF009B09F80320F9E600BF196F0008086F0008B5
:200E80000CB407B504AB53F8042B0193FFF7DAFE03B05DF804EB02B070470000EFF3088180
:200EA00081F30988022181F31488BFF36F8F104B83F308880F4B104A9A605A6942F40472CC
:200EC0005A615A6A42F4E0225A624FF07F42DA614FF47F021A62BFF34F8FBFF36F8F4FF0A5
:200EE000E0236FF07F425A6101221A61704700BFD002002000ED00E0000000084FF0E021F9
:200F00008B698A699B1A23F07F43984202D9C01A1346F6E7704724235843FFF7EFBF48F620
:200F2000A0435843FFF7EABF72B6024B024ADA60FEE700BF00ED00E00400FA0508B5EFF386
:200F40000383036A5B07EFF309830F4A4ABF243044302033904206D30C4A824203D920F0A0
:200F6000030082420BD80A4A934206D3094A9A4203D923F003039A4203D8FFF7D5FF0430EC
:200F8000EFE70433F7E700BFD0000020D0020020D0020020D0060020D30914BF01234FF4C7
:200FA00080338B40836170B5032306684D00AB4002F0030426EA0306AC4034430460446859
:200FC00001268E4024EA0604C2F3800606FA01F1214341608468C2F3C10124EA0304A94071
:200FE00021438160C168C2F34112AA4021EA03031A43C26070BD000008B5FFF74FFF354B53
:2010000035491A6C42F080521A640022C3F8A02001220A6101F5E6310A661A6842F4803238
:201020001A601A6891034ED5D3F8A42042F03002C3F8A420294A5A604FF410429A601A684D
:2010400042F080721A60234B1A6892013DD59A6842F002029A609A6802F00C02082A36D1F0
:201060001A681F4822F001021A60D3F8A42022F03002C3F8A4201A6B42F4800242F08702AE
:201080001A631A6C42F00F021A645A6C42F4804242F001025A64134A012313600F21C2F8FD
:2010A00000320022FFF778FF00F5806000220321FFF772FF00220421FFF76EFFBFF34F8FB3
:2010C000BFF36F8F08BD00BFABE700BFBCE700BFC1E700BF00380240007000400112410044
:2010E0000000024000650240072910B54FF00F0309D8046A89008B4024EA030302FA01F11C
:201100001943016210BD0839446A89008B4024EA030302FA01F119434162F3E7064B4FF095
:20112000E0221B68926903F07F401043834238BF00F17F40C04370473007002008B5FFF7FA
:20114000EDFFC3430146044840F8043B01F50001BDE8084000F03AB83007002010B500F0C1
:201160008FF84FF0E023094C9B6944F8043B08492046002200F024F8FFF7D0FF00F5000132
:201180002046BDE8104000F021B800BF300700203D110008094B40F20C420D281A60B8BFC5
:2011A0000D2007229A620C380122D8625A6100221A6140F20D421A60704700BF000C004027
:2011C0000123C0E90112C36070470000F8B504460D46EFF31186731EDBB23F2B02D94023CC
:2011E00083F31188E368154F012BF6B207D03B683A469C42D96814D101231160E360256002
:20120000FFF78CFF3B680246281A0C4D6BB9E3602C603B68A34201D1FFF7BCFF86F31188B7
:20122000F8BD03F10C020B46E3E71968891A8142EDDA03F10C05DB68E8E700BF44070020ED
:2012400010B5EFF311835A1ED2B23F2A02D9402282F31188DAB2C368012B07D0074B196816
:20126000CC68884205D11C600123C36082F3118810BD01F10C032146F2E700BF4407002091
:20128000064B00225A600122DA60054B402283F832234FF480225A60704700BF000C0040E1
:2012A00000E100E0F8B50C4B0C4E00221A610127346804B9F8BD2568FFF730FF281A0C2814
:2012C00003DDBDE8F840FFF765BFE3683360E760D4E901309847EBE7000C004044070020BC
:2012E0002DE9F007B1E8F807A0E8F807203AF9D1BDE8F0077047F8B532F01F0706460D46B7
:20130000144610D040EA01039B070CD13A46FFF7E7FF3D44F31904F01F04013B2C44A54253
:2013200003D13046F8BD3346F7E715F8012B03F8012FF4E72DE9F007CDB24FF001346C4369
:201340002346254626462746A046A146A246A0E8F807203AFBD1BDE8F0077047F8B532F05C
:201360001F0506460F4614460CD083070AD12A46FFF7E0FF04F01F0472191444A24203D116
:201380003046F8BD3246F8E702F8017BF6E7884230B405460C4602D230BCFFF7ACBF1444B4
:2013A00003468218934202D1284630BC704714F8011D02F8011DF5E710B5034602449A4243
:2013C00001D1002005E013F8010B11F8014B001BF5D010BD10B5034601390244934201D1E8
:2013E000002010BD1C7811F8010F201AF9D1002CF7D00133F2E7421E11F8013B02F8013F70
:20140000002BF9D170470000014B1B685B6818473400002070B50D4B0D4D2B601B680446AC
:201420009847C2070DD50B4B1B78012B09D102F07DFD30B9084E204633689847C30758BFC7
:201440002E602046BDE87040FFF7DEBF8800002034000020F01700200C00002010B4034C4E
:201460002468A468A44610BC604700BF34000020014B1B689B6918473400002070B5054C68
:20148000054E064D2046FEF7BFFF33681C44AC42F8D370BD00C000082C00002000F8030895
:2014A00008B502F019FB054B1B78184300F00303032B14BFC0F38000012008BDB81900202A
:2014C000F8B50D4F054600244FF6FF7605206400FFF725FDA4B24DB102F0FEFA3B78034302
:2014E00008BF44F00104B442F0D1F8BDFFF7D8FF0443A4B2F7E700BFB819002008B5084B78
:201500001B78012B05D0022B09D1BDE8084001F06DB900F00FFEBDE8084000F013BE08BDBC
:20152000F417002008B50A4A11780129034605D002290BD1BDE8084001F09AB9002206201E
:2015400000F0C0FDBDE8084000F0FCBD08BD00BFF4170020F8B50C4601460E480E4FFEF7AB
:20156000CBFF4FF6FF750CB92846F8BDB4F5006F264628BF4FF40066064800233246394684
:20158000FEF7A2FF2A4631463846FEF759FEA41B0546E8E748070020680900202DE9F047DE
:2015A000754C764B764A88B004F5226104F53460FEF7B0FF94F83E3A33B9012384F8743BC5
:2015C000002008B0BDE8F0876E4A04F63E234FF4807104F67530FFF753FC04F5226104F577
:2015E0003460FEF79EFF94F83E5A002D47D104F53460FEF788FF644884F8745BFFF792FFD5
:20160000012204F675312046FEF74CFFE16820460439FEF771FF04222B460DEB0201204618
:20162000FEF752FFBDF804305BBA44F246629BB2934226D000263746032584F8745B002D2D
:20164000BED1A6F58063B3F54D3F14D8B30712D1B91949480439FEF74FFF2B4646480422B8
:2016600005A9FEF731FFBDF814305BBA44F259629BB293423AD0032584F8745BA0E702234D
:201680009CE729462046FEF737FF0C2202A920462B46FEF719FF3D49042202A8FFF79AFE26
:2016A0000028C7D10399049B04310C2202FB0311FFF750FFB0B903992046FEF71DFF2E4686
:2016C000049B9E42B6D200230C2205A92046FEF7FBFE9DF81430042B02D1DDE90676ACE700
:2016E0000136EDE72E462F460425A6E72848FFF719FF31463846FFF72DFF00283AD125480B
:20170000DFF89490DFF894A0FFF70CFFFEF76CFEFFF7B4FE0123224884F8753CFFF702FF09
:2017200015483946FEF7E8FEB046B8F5006F474628BF4FF40067104800233A465146FEF73B
:20174000C3FE4A4639465046FEF76EFE3A4651464846FFF731FE58B9B8EB0708B944E4D183
:201760000D484FF6FF723146FEF76AFD002883D0052581E704257FE7480700202A6F0008DF
:20178000AB6F00083C6F00083F6F0008436F0008486F00084C6F000800C000086809002029
:2017A000506F000870B552485249884286B003D0514A121AFFF79FFD504C51480021221A4A
:2017C000FFF7CCFD4F48504B02680021D61A754201602068216075414C4EB04209D19A4284
:2017E00007D04B49D1E90021501C01D0954688470125484A1360484A1360FFF7FDFBFFF7A8
:20180000ADFC02F097F94DB9FFF74AFE30B92660BFF34F8FBFF36F8FFFF786FB3F4DC820BF
:20182000FFF77DFBFEF756FD00F090F82C78012C35D0022C02D13A48FFF774FE0120FFF7A2
:201840005DFE02F051FB374802F062FB0020FFF737FE0120FFF734FE2978012905D1324B6F
:201860004FF0FF32002000F02DFC3048304C314EFFF758FE04F6786531460122284601F030
:201880009DFD0146F0B92C48FEF7F6FD0346E0B994F8743B53BB0020FFF730FEBCE72749E0
:2018A00001A8FFF7A8FD002201AB1146104600F009FC0022224B2146104600F003FC00F049
:2018C00041FCBBE702F02AFBD6E71E4A142101A8FFF7D6FA01A8FFF725FE94F8753C0BB18E
:2018E000FFF7CCFD0020FFF7EBFDD4E7164AEDE704000020C06F0008D000002004210020AC
:20190000D006002000000020EFBEADDE2CBAB53900C00008D0020020D0000020F4170020D0
:20192000546F0008BE130020686F0008736F000848070020AB6F00089D150008586F000808
:2019400081620008776F00087D6F00082DE9F047DFF88480214E2249B8F81F50DFF884A09E
:2019600086B0002301A83370FFF745FD4FF0E0274FF00209BC6900F0F5FB40B101231A497D
:20198000337001A8FFF737FD06B0BDE8F087B8F825309B070ED0002DF6DD6420FFF7BFFA47
:2019A000BB69E41A24F07F4448F6A043B4FBF3F42D1BDFE700F094FF86F8009000F010FFD9
:2019C00052460346142101A8FFF75AFA00F008FF0328E0D1D8E700BFD4060020F417002088
:2019E000836F0008916F0008886F0008024B0422C3F80421704700BF00E100E0F0B54FF078
:201A0000E0250E49AE690E4F024641F610748B6932EA030301D1012004E08869204002D0E3
:201A2000CC610020F0BDAB69F31A23F07F43BB42EDD9044B01221A70F4E700BF00580040C5
:201A4000407E0500F817002010B50D4B1C68002A24F001041C600CBF00224FF480621C689E
:201A600042EA014242EA400242F0007244F001041C605A605A6842F400525A6010BD00BFE6
:201A80000058004008B52020FFF7B8FF18B1024B2022DA61012008BD0058004010B50446E4
:201AA0000220FFF7ABFF10B1014B01209C6210BD0058004038B50C4611460022FFF7C4FF62
:201AC000651814F8010BFFF7E9FF28B1A542F8D1BDE83840FFF7D6BF38BD000070B50C46F6
:201AE00011460122FFF7B0FF074E65180420FFF785FF40B1736A04F8013BAC42F6D1BDE8F7
:201B00007040FFF7BFBF70BD0058004010B50446FFF7C4FF44F00400FFF7C0FF2046BDE81C
:201B20001040FFF7BBBF08B500220121FFF78CFF0020FFF7B3FF18B1BDE80840FFF7A2BF8E
:201B400008BD30B58B188024994200F1020001D1500030BD00F8024C11F8015B00F8015CB7
:201B6000F2E700002DE9F341204E96F80180B778B8F1020F05462DD11D490122FFF7E1FF34
:201B8000F378402B18BF4FF00008503F2C188DF804808DF805703379002B14BFAF23AE232E
:201BA0002046032201A98DF80630FFF7CAFF114BB3F82530DB06044405D520460E49052233
:201BC000FFF7BFFF0444402304F8013B601B02B0BDE8F08109490622FFF7B3FF07232C189B
:201BE0008DF804708DF80530D5E700BFF8170020D8650008D4060020DF650008D9650008B7
:201C00002DE9F84F3B4B3C4C1A7847F6031647F28313022A18BF1E4694F808310133DBB2B5
:201C2000012B84F8083105D14FF01133A3600420BDE8F88F314BB3F846304FF6FF718B42F8
:201C400002D0002A08BF1E4600230C22984646FA02F1B8F1000F03D101F00700072806D072
:201C60005B00080708F1010848BF43F00103043A111DECD143F020032279E37294F80A3184
:201C800094F80991003A43F0300318BF0122237302232272637349F04002194B627248F074
:201CA0001002A27200271D4603F1FD0A4FF0280B474510D194F8AB3107FB09502BB994F867
:201CC000AC310133DBB284F8AC310E4A022384F80831801AACE7B90046FA01F101F00701CA
:201CE00018464A460BFB01A1FFF705FB03464B440137DDE738000020F8170020D406002003
:201D0000061800200018002038B501461648174B90F80821164C5AB990F8AB01002244F2A7
:201D2000A0055A64256040F2912499645C640BE0012A16D10020986548F2A000206040F271
:201D40008120D96598651020FFF77EFEFFF7E6F900F5DB01BDE83840064801F5BA41FFF70D
:201D600035BA1020DAE700BFF81700200064024000580040A819002030B5134B1B7921F08E
:201D80000F041A4353B222430468651C056022700468651C056042F0040525700468651C76
:201DA0000560227043EA01110368C9B25A1C0260197003685A1C026041F004021A70036837
:201DC0005A1C0260197030BDF81700202DE9FF47AD4B9A69940609D52021D006D96108D589
:201DE0001022DA61A94B0422C3F8042104B0BDE8F0875F68A64C17F4806709D0E37A84F84F
:201E0000C031FFF7FDFE04B0BDE8F047FFF77CBF94F8AB3184F80871002BF2D094F8C12167
:201E2000A378002A00F0D580E278B3EBD20F4FEAD20105D14B1CA37094F8C231002BE0D188
:201E4000A3788B4207D90023A37094F8AC310133DBB284F8AC31A578202A4FEA550721D014
:201E60008C4B197847F2831247F60313022918BF1346894AB2F842204FF6FF718A4204D04A
:201E800084490978002908BF13464FF0000913F0080814BF0222012291444F4505DBC3F337
:201EA0000F13F4E747F21073E3E794F8C32103F00703934274DA7948794E282202FB03033A
:201EC000002284F8882022721946A0F581704FF00C0C94F80921A1EB030E724500F1800A67
:201EE00045D802EB42025600C6F17F0632460021FFF734FA324600215046FFF72FFA694E40
:201F0000B8F1000F5DD0B9EB07075AD0012F664B0CBF802700273744EC4603F1100E186847
:201F20005968624603C2083373459446F7D115F0010F5E4A07F1800137D117F8013B03F062
:201F40000F0310336B448F4213F8103C02F8013BF3D15448FFF706FE3318544980221846DD
:201F6000FFF7C9F90135A5708030801B4BE711F8012B203A5F2A28BF0E220CFB02F202EBCA
:201F8000060E92590260BEF804208280DEF80620C0F88020BEF80A20AAF80420063098E755
:201FA00040484FF480720021A7E717F8013B04A800EB13138F4213F8103C02F8013BF4D18A
:201FC000C7E7E907C5D4374980228818FFF793F9BFE794F8C32104F108069A42009606D124
:201FE000531CA37094F8C231002B7FF40AAFA378934207D90023A37094F8AC310133DBB259
:2020000084F8AC3147F2107342F20315022A18BF2B46214AB2F842204FF6FF718A4204D01F
:202020001C490978002908BF1346257994F8028065B14FEA88052B415A075FBF174D03F0A7
:202040000703282202FB035548BF0025184B43440022197F684641F08001FFF78DFE94F89A
:2020600009319F4204D308F101030098A3707CE73DB115F8011B01226846FFF77DFE0137D2
:20208000EDE72021F7E700BF0058004000E100E0F817002038000020D40600200319002078
:2020A0001066000800180020E465000880180020D86500080248A0222021FFF74FB900BF12
:2020C00003190020F0B51A4C94F8095132EA220728BF2F46282204F20B1402FB010121446F
:2020E000EFF31186721ED2B2CF2A02D9D02282F311885FFA86FCDC19E21A13F8017B27B154
:20210000A84200F101060CDB30468B18401A20245A1A002A02DD4218954206DC8CF3118897
:20212000F0BD01F8017B3046E6E701F8014BEFE7F81700200028024B18BF0820187170473C
:20214000F8170020064991F8AC21D2B291F8AC319B1ADBB2012B00D9704700BFF6E700BF68
:20216000F81700202DE9F04F944C954A94F8C23194F8AB61934D1E4300232370A37084F87F
:20218000083184F8C031136C43F48003136485B085220A212846FEF7FFFE85220B21284641
:2021A000FEF7FAFE0A20FEF7B6FE2B695F051BD52B69180518D44FF00063AB614FF080630A
:2021C000AB610A20FEF7A7FE4FF48063AB610A20FEF7A1FE4FF40063AB610A20FEF79BFED5
:2021E0002B69590548BF2B69002E00F09E80754804220A21FEF778FF724804220B21FEF79B
:2022000073FF704806220A21FEF7C6FE06226D480B21FEF7C1FE6C4B6C4A1A6101221A6046
:20222000002E00F0BB806A4BD022022183F82123C3F88411596083F822230422C3F884216D
:202240005A6003F1C04303F5C23313221A6112225A61604A604D43F8B05C43F8B42C043A4A
:2022600043F89C5C5D4943F8A02C05F5D4700022FEF7A6FFFEF752FF00F5DB0101F5BA417C
:2022800005F5D470FEF7A2FF94F8C171002F00F08481534FB7F8253013F0800301BF4A4A08
:2022A0001360504B13616678002E40F023814E4BDFF838A19A8C93F826308DF806304C4B1A
:2022C000ADF804200293B04694F8AB91032201A94846FFF7EFFB002800F0998102226946A0
:2022E0004846FFF7FBFB002800F091819DF801B01AF8013B04228BEA030302A948468DF847
:202300000B30FFF7D7FB002800F08181B8F1000F02D0B34540F0EC8008F10108B8F1030FC5
:2023200000F039819DF80B60CEE7264840220A21FEF732FE402223480B21FEF72DFE0A20DB
:20234000FEF7E9FD2A692B69520502D51B053FF54EAF1F4B0222C3F88420BFF34F8FBFF3CD
:202360006F8F0422C3F88420BFF34F8FBFF36F8F154B144800241C6020220A21FEF70CFED2
:20238000104820220B21FEF707FE0D4A136C23F480031364204605B0BDE8F08F3046FFF7EB
:2023A000C2FB1020FFF7BFFB202584F8C201237803B3002384F8C231CBE700BFF817002079
:2023C0000038024000040240005800404E4C508000E100E02858004000180020ED19000874
:2023E000D4060020281B3040D8650008791D00088000C0002846FFF796FBD8B90135EDB2B2
:20240000282DD4D138252378002BD2D12846FFF78AFB78B90135EDB2402DF4D12578002D11
:20242000C7D194F8C231002BC3D07B4BB3F825309F07BED194F8C23123B178490122102065
:20244000FFF74CFB744AB2F8253013F0020131D0012184F8C11113F0200F14BF4021202164
:20246000E170917E08293AD0D90738D413F0080F14BF1223152384F80931042384F8C3312E
:202480007DB384F8AB5194F80931102B38BF1023282B28BF282384F8093194F8C331022B81
:2024A00038BF0223042B28BF042384F8C331FFF701FEB8E6D80708D584F8C111C3F34511AA
:2024C00084F80911C3F3C223D8E725F001013C290CBF0121002184F8C111BCD0EEE71023A0
:2024E000C9E792F8483084F8C15184F80931CAE7012363704A494B480F22FFF722FBB7F825
:20250000253013F0400F14BFA723A6238DF8083081238DF8093097F834308DF80A30A82312
:202520008DF80B30E3785A1E402B05EB00068DF80C204FF0DA020CBF122302238DF80D2004
:2025400002A9072230468DF80E30FFF7FAFAB7F82520354B12F0040F03F1020108BF0B46EC
:2025600034181B88ADF80830D20548BF83F001034FF0020202A9204648BF8DF80830FFF72C
:20258000E0FA04442046FFF7EDFA2044401BFFF7BBFB0120FFE60223ABE794F8AB0110B9AD
:2025A000FFF72EFBF3E73A460C21FFF74DFA3020FFF7ACFA41F20400FEF7ADFC3020FFF731
:2025C000A5FA6420FEF7A7FC3020FFF79FFA2020FFF79CFAFFF756FA02A83A462821029545
:2025E000FFF7CAFB3A460821FFF7C6FB3A460621FFF7C2FB3A460C21FFF7BEFB0298401B15
:20260000FFF782FB002EC4D108232371C1E7074B0422C3F80421BCE7D4060020BC19002033
:20262000FF65000800180020F865000800E100E008B50A4B0A489A6941F61072DA61012153
:2026400000221A60196003F503339A655A64FEF7F7FDBDE80840FFF785BD00BF0058004015
:20266000A81900202DE9F041154F164D04464FF010083A784FF480339340AB610220FEF72C
:202680004AFC14F4004F7A7814BF01234FF480339340AB610220FEF73EFC3B78012606FAB4
:2026A00003F3AB610420FEF736FCB440B8F10108A4B2DED17B789E40AE61BDE8F08100BF6D
:2026C0003900002000040240014620220148FEF763BC00BF0004024010B50B4C0B48217868
:2026E0000522FEF759FC0420FEF715FC2078FFF7EBFF0220FEF70FFC6078FFF7E5FFBDE84E
:2027000010400220FEF707BC3900002000040240F8B5194E194F40F4807400253178052257
:202720003846FEF739FC0220FEF7F5FBE30771781DD50846FFF7C8FF0120FEF7ECFB012CF0
:2027400008D13D6971780522CD40384605F00105FEF722FC0120FEF7DEFB3078FFF7B4FF11
:202760000420FEF7D8FB6408D8D12846F8BD05223846FEF711FCDFE7390000200004024029
:2027800038B50D4C0D4D217805222846FEF704FC0420FEF7C0FB2078FFF796FF0220FEF768
:2027A000BAFB284661780522FEF7F6FBBDE838400220FEF7B0BB00BF390000200004024013
:2027C00070B506460325FFF7DBFF3046FFF7A0FF0446FFF781FF0CB1013DF4D1204670BD72
:2027E000014B1878704700BFBE190020064B1A78032A05D1002814BF89208020FFF7E0BFD1
:2028000000B15888FFF72EBFBE19002070B5174B1D78032D044621D1FFF7B2FFC020FFF748
:2028200077FF30B10126FFF757FF0EB1013DF3D170BD2078FFF76CFF0028F3D16078FFF72D
:2028400067FF0028EED1A078FFF762FF0028E9D1FFF75EFF061E18BF0126E4E7008840BA18
:202860005880BDE8704080B2FFF7FCBEBE190020F7B51A4900250B88ADF80430441E8DF8CB
:20288000065001AA0330402614F8013F0BB1844204D101A8FFF7BAFF03B0F0BDA3F1300778
:2028A000092F05D80B4413F82D3C13700132EBE7A3F16107192F03D80B4413F8543CF4E7D4
:2028C000A3F14107192F03D80B4413F8343CECE72D2B0CBF16701570E8E700BF846A0008AA
:2028E00010B5164B164C1B78022B04BF06236370607804BF07232370FFF7E6FE2078FFF711
:20290000E3FE4020FFF75CFF0E4B48B903221A700D48FFF7ADFFBDE810400120FFF766BFF4
:20292000022261781A7009488122FEF735FB217806488122FEF730FBEAE700BFCC1B0020B6
:2029400039000020BE190020AB6F00080004024000687047034600685968704710B5034669
:20296000024413F8010B11F8014B9342A0EB040001D00028F5D010BD03690239023B8B4205
:2029800083BF4389806A01FB030000207047000003685A1C02601878A0F16103192B01D884
:2029A000203870477F2882BF024BC01810F8800C704700BFAC6A00087FB5044601911D4660
:2029C000114629B923785BB955B1012004B070BD01A8FFF7DDFF01390028F2D10020F5E76B
:2029E000019B02940393029B1B783F2B01D02A2B1DD100231A460299481C02900E78497806
:202A00003F2E0CBF013201233F29F4D02A29F2D00399FFF7D1FF0028D7D1039B197801A8DC
:202A2000FFF7B6FF002DD9D00029D9D1D6E702A8FFF7AEFF064603A8FFF7AAFF8642014693
:202A4000EDD1002ECFD1C0E702684AB1134613F8011B1F290BD93A29F9D1911C8B4202D0B9
:202A60004FF0FF3070471278302AF9D103600020704738B50D46044618B9092000232B6017
:202A800038BD0368002BF8D01A78002AF5D08188DA889142F1D15878FEF7B6FC10F00100EA
:202AA000EBD12368EBE738B5C36A8B4205460C4611D001230A4600F130014078FEF7CEFC8B
:202AC000002818BF4FF0FF340346EC620CBF03460123184638BD0023FBE7000038B500234E
:202AE000C3704FF0FF33C3620446FFF7DCFFA0BB94F83030B4F82E52EB2B03D01833DBB2BE
:202B0000012B23D84AF655239D4206D11449082204F18200FFF722FFF0B1B4F83B305A1EDB
:202B20001A4213D1B3F5007F10D194F83D0068B1431E18400AD194F84030013B012B05D896
:202B4000B4F8413013B1B4F846302BB94AF6552085420CBF0220032038BD0420FCE700BF47
:202B6000A36F00082DE9F04F002387B00B600D46FFF76AFF071EC0F25481AF4E56F8274011
:202B8000002C00F050812C60237853B90023F8B223706070FEF73EFC10F001050BD00325AD
:202BA00005E06078FEF730FC10F00105EED1284607B0BDE8F08F29462046FFF78FFF0228A6
:202BC00040F0188194F8F231EE2B40F0F08001212046FFF768FF002840F0088104F13009D0
:202BE000964910224846FFF7B9FE002841D1DFF850E26FF00F024FF0FF3304F14008032AFB
:202C00008CBF18F8020000200827012100EA010ABAF1000F0CBF9C4683F0010C1CF0010FEE
:202C20004FEA5C0318BF83EA0E034900013FC9B2ECD101324C2AE2D104F14000FFF788FED9
:202C4000DB43834215D104F18400FFF781FE80280FD104F18000FFF77BFE8028804608D803
:202C600004F17800FFF776FEDFF8D8B18246474501D10D259BE7C7F39601FB0151442046FB
:202C80000193FFF710FF002840F0B080019B03F4C07309EB0300102259460193FFF75EFE9F
:202CA000019B08B10137E2E703F120004844FFF751FE01462046FFF711FF0128F2D8B4F887
:202CC0003B30B3F5007FD4D1B4F8462022B904F15400FFF73DFE024694F84030D4F82C908A
:202CE0006261591E0129A370C3D894F83D706781002FBED0791E3942BBD1B4F84180A4F83D
:202D0000088018F00F0FB4D1B4F8430018B904F15000FFF71DFEE18F0029AAD002FB03FE59
:202D200001EB181CF4448445A3D8A0EB0C0ABA45BAFBF7F39DD3444FBB429AD84FF6F57795
:202D4000BB4272D9032709F1FF3A50440233E061494409EB0C00032F2361C4F8189021629A
:202D6000A0624DD1B4F85A1051EA080181D104F15C00FFF7EDFD9B00606203F2FF13B2EB55
:202D8000532F0BD2012F3FF474AF032F4FEA42220CBF04200220B2FBF0F22261B38827708A
:202DA00001339BB2B380E380284BE360FFE60DF1080804F5FB7304F2362142461846FFF7C3
:202DC000C7FD10338B4242F8040BF7D1002758F8041B69B12046FFF781FE01287FF66FAFC7
:202DE0000137042FF3D104287FF443AF0125DEE60320F5E70428F9D001287FF660AF38E769
:202E0000B8F1000F3FF435AF7144022F61624FEA43011BBFC91803F001030B4603EB510378
:202E2000ABE70B25C3E60C25C1E640F6F577BB428CBF0227012786E7C41900202C6B00080B
:202E40002083B8ED3C6B0008F5FFFF0FCA19002003284B8B04BF8A8A43EA02431846704717
:202E60000129F8B506460C464ED9036999424BD20378022B29D0032B34D0012B44D101EB52
:202E80005105016A01EB5521FFF70DFE10B14FF0FF30F8BD6F1C316AC5F30805354401EBDA
:202EA0005721304695F83050FFF7FDFD0028EED1C7F308073E44E30796F8300045EA0020FE
:202EC0004CBF0009C0F30B00E3E7016A01EB1421FFF7E9FD0028DAD1640004F4FF742644E2
:202EE000308ED6E7016A01EBD411FFF7DCFD0028CDD1A40006F1300004F4FE742044FFF7F7
:202F000027FD20F07040C4E70120C2E738B5826805680023044603619AB92B78022B01D946
:202F20006B6A6BB92B890BB9022038BD6B6AA361A3696261002BF7D03035E5610020F4E7C9
:202F40001A466B8963B911462068FFF789FF431C02460BD00128E7D92B699842F3D3E3E73B
:202F600011462846FFF708FDA061E1E70120DCE7F8B5066905682036B6F5001F24BF002335
:202F800083618369044663B1C6F3080707BB41690133836139B92B89B3EB561F18D80023EB
:202FA000A361042019E06B89013B13EA56230FD12846FFF755FF012801460FD9431C0FD01C
:202FC0002B699842EBD260612846FFF7D5FCA06130353D442661E5610020F8BD0220FCE742
:202FE0000120FAE72DE9F04F89B0036801930446884611F8013B2F2BFAD05C2BF8D000234F
:20300000A36098F800301F2B00F298818023204684F82B3009B0BDE8F04FFFF777BFFF2EC2
:2030200000F0AE812BF8160001368BE1424613782F2B904602F10102F9D05C2BF7D0002520
:20304000ABF10202BEBB00232BF81630002E00F097813BF8131020291A4603F10103F8D0D6
:203060000AB92E2901D145F00305ABF1020131F816302E2B01D0013EF9D104F12003049337
:203080004FF000094FF0203363622362C4F827304FF0080A4F463BF81200531C10B3202854
:2030A00003D02E280FD1B34211D045F003051A46F1E70425C4E732F81630202B01D02E2B03
:2030C000C1D1013EBEE7D14505D2B34263D1BAF10B0F58D102E0BAF10B0F4FD145F0030572
:2030E0004FF00B0A94F82030E52B04BF052384F82030BAF1080F04BFBF00FFB207F00C03DE
:203100000C2B03D007F00303032B01D145F00205AB0707D4FE0748BF45F01005780748BF03
:2031200045F00805236884F82B5020460293FFF7EDFE0746002840F0E0804FF0FF3B4FF032
:20314000FF09C4F82CB04D46A1690298FFF7ABFC0746002840F0D180E6693378002B00F0F0
:20316000D980F17AE52B01F03F02A27103D009074ED50F2A4ED0C4F82CB099E0B34202D001
:2031800045F00305AED8BF00FFB233464FF00B0A4FF008098BE77F2812D945F0020240F270
:2031A000B5110393029200F00BFC10F0800FDDE9022311D07C4900F07F00085C154638B1F1
:2031C0007A4911F8012B002A00F0DE808242F8D145F003055F2011E0FF28EFD90AF1FF312B
:2031E000894503D345F00305D14660E704EB0901050A81F8205009F10109154604EB090246
:2032000009F1010982F8200051E747F00207F5E70F2A54D194F82B2057063FD4580645D59F
:2032200003F0BF05236996F80D90E362737B4B453ED1738B002B3BD1029B3778DB680393F4
:2032400007F03F07013F0D23DFF864A15F4301221AF8013BF35A6AB3FF2F29D81846079341
:2032600000F0E2FB039B0690791C33F81700059100F0DAFB069A82421AD1079B05991A462C
:203280000F464C4B9A45E3D13378590604D51AB1039B33F817305BB9013DEDB22046FFF7A4
:2032A00067FE074600283FF44FAF26E0AB42BDD0FF25F3E74FF6FF718B42E2D0F8E775B944
:2032C00006F10B023146EB0143EA550511F8013B53FA85F58A42EDB2F5D1A9451CD094F85D
:2032E0002B7017F001077FF446AF04990B223046FFF734FB00287FF43EAF94F82B306FB1C8
:20330000042F03D113F0040F08BF0527384609B0BDE8F08F0427F0E70027EEE75A07F5D41A
:20332000A379DB062ED5019B21693033C1F308011944019B1878FFF78BFDA0602368D3F8EA
:203340000CB0002618F8010B00283FF4B2AE40F2B51100F055FB98B11F287FF6AAAE2F28C8
:203360003FF464AE5C283FF461AE7F283FF657AE114A12F8013B002B3FF451AE9842F8D1C0
:203380000627C3E70527C1E7A0F1410292B2192A7FF63BAFA0F1610292B2192A9EBF203898
:2033A00047F0010780B229E7AC6A0008B56F00084C6B0008596B0008AC6F00081FB5CDE90A
:2033C000001003A814460391FFF73EFB002815DB0B4B53F820200AB100211170019A0AB169
:2033E00000211170019A43F8202024B101A96846FFF7B8FB0446204604B010BD0B24FAE7FE
:20340000C4190020F0B591B016460191054600283AD0002302A901A88DF81230FFF7A2FB8D
:20342000044620BB029B0199039303A8FFF7DAFD0446E0B99DF93730002B21DB9DF8124034
:2034400014F010041ED1029F0A993878FFF700FDA86001F11C00FFF77BFA2F60E860FB88A3
:20346000AB8006F001062E746C74EC616C619DF81230AB710CB100232B60204611B0F0BD56
:203480000624F4E70424F2E70924F6E72DE9F04F994687B000238846C9F8003005A90446D7
:2034A0001646FFF7E6FA054608BB657CFDB9237C13F00103029377D0E7686269BF1AB742C7
:2034C00004F1200328BF3746019387B16269C2F30803002B54D1059B5B89013B13EA522B8F
:2034E00015D142B9A06801280AD802256574284607B0BDE8F08FA1692068FFF7B1FCF2E781
:20350000431C03D10123029D6374F0E7A061DDF814A0A1695046FFF72FFA0028E5D0B7F535
:20352000007F0BEB00021DD3BAF80A100BEB572088424FEA572688BFA1EB0B069AF80100F4
:2035400033464146FDF78AFF0028DBD17602D9F800303344C9F800306369BF1BB0441E443D
:203560006661B2E7E369934209D001999AF8010003920123FDF772FF039A0028C2D1E2610B
:203580006369019AC3F30803C3F50076BE42134428BF3E4608F1FF32991913F8010B02F826
:2035A000010F8B42F9D1D2E70725A0E7F7B50E4601A90446FFF75DFA054640B9657C35B9A4
:2035C000E26863696561964228BF164616B9284603B0F0BD019A57897F0213B3013B721EC9
:2035E000B3FBF7F1B2FBF7F28A421AD37A421340A1696361F61A69BB00266369C3F3080322
:20360000002BE4D0E369B342E1D0019801234078324604F12001FDF721FF054670B9E66107
:20362000D5E7A168A161E6E73B4463612068FFF717FC431CA6EB0706014602D1012565740C
:20364000C5E7012803D9019B1B69834201D80225F5E7A061BE426369E6D833446361C6F379
:203660000803002BC8D00198FFF786F90028EED000EB5626C1E71FB50446019140B303A92A
:2036800001A8FFF76FFA70B9039B019923602046FFF7A8FCF0B994F92B30002B0CDBA3797F
:2036A000DB0603D40520002323600FE0039BE1691878FFF7CDFBA060039BDB88A3802046D8
:2036C000FFF724FC0428EDD00028ECD104B010BD0920FBE70428E5D0E5E713B501A9044611
:2036E000FFF7C7F900B9206002B010BD2DE9F74F0D4601A90446FFF7BCF9074620B93DB9F2
:203700002046FFF703FC0746384603B0BDE8F08F4FF0FF0AD4F80080564604204FF6FF799B
:20372000A16911B9002874D055E04046FFF7BBF9002850D1E3691A78002A00F0B580D97A1B
:20374000E52A01F03F01A1714CD02E2A4AD021F02000082846D00F2949D1510640D502F062
:20376000BF06226993F80DA0E2625A7B524539D1598B002936D11A78D8F80C00DFF8ECE1E1
:2037800022F040024FF00D0C013A0CFB02F24FF0010C1EF801BB33F80BB0BCF1000F23D094
:2037A000FF2A1FD820F812B0DC46013201310D29EFD11B785B0607D5BCF1000F04D0FF2A09
:2037C00010D8002320F81230013EF6B22046FFF7CFFB0028A4D000230428A36193D118E02C
:2037E000B242C2D0FF26F1E7CB45DFD0FAE76EB903F10B01F20142EA560613F8012B52FA81
:2038000086F68B42F6B2F5D1B24502D04FF0FF33E3624FF00008D4F800B085F81E80A36988
:20382000002B00F09980DBF82C30AB60E369EB60E36A013371D100231A462E26E069815CC3
:20384000202902F101020CD0052908BFE521092A04D10B2B9EBFE81801334674E818013395
:2038600041740B2AEAD1EA1800215174AA7F002A64D1002B58D06FF0100605F1110108203B
:20388000761B731811F8012B002A50D02E2A93B269D0A3F14102192A04D8E269127B104297
:2038A00000D020330B73ECE7042094E7BAF1000F05D100F520539BB2B3F5006F13D340F281
:2038C000B51140EA0A4000F07BF8FF28C9F1FF061BD9012E24D905EB0903020A9A77D877DD
:2038E00002239944002008F102088246DBF80C3033F808000028D9D14E46BAF1000F18BFA2
:2039000000262E440023B37795E758B1002EF4D005EB090398770123E3E7C246C146E5E777
:203920000026EAE70646E8E73F23AB7701232B4400229A77E3691B7B03B96B74E369DB7A0D
:203940002B74E0691C30FFF703F82860E369DB8AEB80E3691B8BAB802046FFF709FB0428F5
:2039600018BF0746D0E6102013469BE74C6B0008F8B506460D4601F11E0729463046FFF765
:20398000B5FE044650B94DB1AB7F3BB1034602463946306BFFF710F80028EED02046F8BD63
:2039A00038B50D46036311460446FFF764FE28B929462046BDE83840FFF7DABF38BD000011
:2039C0007F2810B501D880B210BDB0F5803F13D240F2B51399420FD10849002231F8024BBC
:2039E000844293B203D103F18000C0B2ECE70132802AF3D11346F6E70020E5E75A6B00089F
:203A00007F280DD940F2B513994208D1FF2806D800F10040034B803833F81000704700201D
:203A2000704700BF5A6B0008B0F5803FF0B523D21F4A02F5F97183B2B0F5805F28BF0A468B
:203A4000141D34F8042C2146AAB1934213D334F8025C2E0AEFB252FA85F5A84222DA082E17
:203A600009D8DFE806F0050A10121416181A1C00801A34F810301846F0BD981A00F001004B
:203A80001B1A9BB2F7E7103BFBE7203BF9E7303BF7E71A3BF5E70833F3E7503BF1E7A3F5D4
:203AA000E353EEE70434002ECBD101EB4702C7E75A6C000870B506460C460025E30704D59D
:203AC000202229463046FDF767FA0135102D4FEA5404F3D170BD0000114B12491B780A78A9
:203AE0000F2B05BF104B18694FF0FF30C0082AB90E4B1B6993FAA3F300EAD3504B78C04300
:203B000000F007005BB1022A0BBF074B084B1B691B6908BF1B0ADB4303F0040318437047E9
:203B2000F0170020CC1B00200000024000080240001C024038B53C483C4C40220B21FDF7F2
:203B40002BFA402238480C21FDF726FA4FF6FF712046FFF7AFFF6420FDF7DDF9344A236906
:203B600012783448C3F30731C3F3033322B3324A1268C2F30B02B2F5E37F03D040F2422563
:203B8000AA4217D12D4B02221A700F232B4D0F2202702A78022A2CD101236B7040F21324AB
:203BA0006B7823B1264820220221FDF7F5F941F607110EE08D07E9D411F00E0F03702FD17A
:203BC000042119480122FDF7E7F940F2112449F61F1181F47F41144881F0FF01FFF76AFF31
:203BE00084F47F411748BDE8384081F0FF01FFF761BFDA0758BF01230C4858BF2B70402206
:203C00000F21FDF7C9F96420FDF785F923691B0443BF02236B7041F2112440F21124BFE7A6
:203C200040F21124C3E700BF000002400008024030000020F0170020002004E0CC1B0020A6
:203C4000001C02400004024010B5104C0A220B212046FDF749FA0A220C212046FDF744FAB9
:203C600002220B212046FDF797F902220C212046FDF792F9064BD3F8A42042F43042C3F891
:203C8000A4205A6B42F080025A6310BD0000024000380240034BE02283F8432308229A604C
:203CA000704700BF00E100E070477047FDF733B9FDF735B94FF0E0239B69036048F6A043D3
:203CC00059434160704710B54FF0E02341689C6903681B1B23F07F43994284BFCB1AC0E919
:203CE00000434FF0000296BF42601046012010BD014800F0D5BC00BFEC1B0020704700009E
:203D0000014B00221A7070479C1F0020704770477047012070470000024B01221A70002002
:203D2000704700BF9C1F002010B9024B18787047012070473C00002040B9064B1B78DB07E2
:203D400006D4002918BF0421084670470421FBE70321F9E73C00002008B5054B187828B182
:203D6000044800F080FC003818BF012008BD00BF9C1F0020EC1B002008B5FFF7EDFF20B165
:203D8000024B187B003818BF012008BDF020002010B5074CD4F894305B6C9847054A0C2352
:203DA0002371137843F001031370012010BD00BF9C1F00203C00002008B560B9FFF7CCFFAF
:203DC00038B1064B187B002818BF0420044B187008BD0120FAE70420FAE700BFF020002061
:203DE0003C0000202DE9F0470F46904630BB2BB3154A1278D10723D4520723D4DFF84C906B
:203E0000DFF84CA05E02484600F02DFC18B9BDE8F047FFF7BDBF334642463946484601F0BA
:203E2000E3FF514605460446484601F057FC032DE9D0002DEBD12046BDE8F0870424FAE745
:203E40000324F8E70224F6E73C000020EC1B0020A01F0020704770477047704770477047AD
:203E60007047704770470000014B00221A7070479C1F0020014B00221A7070479C1F002009
:203E80002DE9F0470F46904620BB1BB3134A1278D20721D4DFF84890DFF848A05E024846F0
:203EA00000F0E1FB18B9BDE8F047FFF771BF334642463946484601F0E1FF51460446054658
:203EC000484601F00BFC032CE9D0002CEBD12846BDE8F0870425FAE70325F8E73C00002095
:203EE000EC1B0020A01F002007B5054B0093054A054B0648012100F0B5FF03B05DF804FB63
:203F000040000020A01F0020BC000020EC1B0020014B1860704700BF34200020014902481D
:203F200001F094B8A01F0020EC1B002008B5064800F099FB28B9054B1879003818BF0120BD
:203F400008BD0120FCE700BFEC1B00209C1F002037B50023124D019304460320FFF7A6FECE
:203F6000E268013D1369019317D0019B002BF4DA019B43F001030193019B1361E168084B1A
:203F80000A690192013B02D0019AD207F8D4032003B0BDE83040FFF789BE03B030BD00BF46
:203FA000410D030010B51C46C3783BB900EB82000334D0F8D020A4109C4201D1002010BDAD
:203FC00051F8230010600133F6E710B50332D0F8D00092100023934202D101EB830010BDB9
:203FE000046841F823400133F5E7012370B5012943804FF04003838032D14FF48163038041
:204000004FF4A073C38002230372C1724FF0A04303F5006245780261C36003F5106200F120
:20402000180400218D421DD803F58062426103F58862C0F8CC20024603F5A06412F8905B43
:2040400000218D4216D803F5805100F1D0040022954214D803F56063C0F80C31002070BD12
:204060000023D5E744F8042B02F50076A66301312032D7E742F8044B01312034E1E744F82B
:20408000041B013201F58051E2E738B5037AC268012B04464FF0000527D1956B417A6FF3DB
:2040A000104509B9C5F3005363F314559563E268D36823F4940323F04003D3602046FFF70F
:2040C00047FFE378012B0ED1E3682A229A60E378012B08D1E1688B6823F03E0242F02A0256
:2040E00062F307038B60002038BDD36843F04003D360FFF72DFF637A003B18BF01231B012C
:2041000043F02D0363F31745E36814209D63FFF7CFFDDCE7C268936843F001039360002017
:204120007047C268936823F0010393600020704707B500230193019B43F020030193019B2D
:2041400061F38A130193C368019A1A61C168074B0A690192013B02D0019A9206F8D40320E8
:20416000FFF7A4FD002003B05DF804FB410D030007B500230193019B43F010030193C3681C
:20418000019A1A61C168074B0A690192013B02D0019AD206F8D40320FFF788FD002003B0CA
:2041A0005DF804FB410D030008B5C068C368C3F3076222F06002012962F31F6307D143F0AB
:2041C0000053C3603220FFF773FD002008BD0029F7D143F08043F4E7C368586900F001002D
:2041E0007047C36858699B691840704743699868C04300F00100704710B502460020D3684A
:204200009861D1684FF0FF334B61D1684B60D3686FF080415961D3680A499961D378D1684A
:20422000B3FA83F35B098C691B0143F0487323438B61D268936923F0005323F008039361F8
:2042400010BD00BF000800804269136861F3010313607047D0F8CC30186820F02E0363F3C7
:204260000700704738B504460D46FFF71DFD2046FFF7F0FFC20408D4012D02BFD4F8CC3042
:2042800040F480501860C30405D525B9D4F8CC3065F30C30186038BD43695869704738B549
:2042A0000546FFF7D7FFD5F8CC3040F480741C606420FFF7FDFCD5F8CC306FF308241C6034
:2042C0001420FFF7F5FC012038BD38B50446FFF7ECFCD4F80C3100211960237A012B18BF55
:2042E00001212046FFF7B0FFFFF7D9FF626913686FF382031360E37A012B0AD1E3688022D2
:204300005A62E36802F5C0029A62E3686032C3F8002110212046FFF70BFF2046FFF728FF0E
:20432000002304F190024FF0FF301D462178994208D801212046FFF795FF2046FFF75CFFE5
:20434000002038BD1168886052F8041B0133CD60ECE770B500EB81044FF0FF35D4F89020C6
:204360009560C27802F1FF3CDCF1000242EB0C02002362F382034A1D00EB421595F815513D
:20438000032D11D8DFE805F00264025743F4936545F0010565F30F0300EB421595F8126173
:2043A000002E3FD043F48073D4F89050EB6045690123AE6903FA01F13143A961C1688B692C
:2043C00000EB421043F000738B6190F8113190F8152103F00F01B0F81631C3F30A0343EAA4
:2043E000C12390F8121101F0010143EAC13390F813118D1E6942694143EA414302F00301C7
:2044000043EA814390F81011D61E01F07F017242724143EA815343EA4273D4F89020136064
:20442000002070BD95F8145143F04003002DBBD043F02003B8E743F4D36545F0010565F318
:204440000F0300EB421595F81251002DAAD1ABE743F4087545F0010565F30F0300EB421543
:2044600095F81251002D9FD043F4C07565F30F039AE72DE9F0410A460FB200EB411104467A
:20448000D1F8C031551D002B5FD000EB4510013BB0F816010344B3FBF0F39BB2B3F5807F8F
:2044A00004D90002C1F8C0014FF4807304EB451090F8126126B1B0F816015843C1F8C00183
:2044C000D1F8C00104EB421CC0F3120040EAC3439CF8B80104EB870700F0030043EA407373
:2044E000D7F8900023F000430361E378012B02BFD7F89030DCF8BC015861D7F890301B6870
:2045000020469846FFF772FE430103F02003C8F3046063F07F03034363F31F68D7F89030F1
:20452000C3F80080E37856012BBB04EB451595F8123103BBD1F8C031EBB195F815010328AD
:2045400011D8DFE800F0041B041B0123AEE7E068C56A0333ADB2C3F38F039D4203D28369D0
:2045600043F0200383612644B1F8C031D6F8BC112046FFF717FD0020BDE8F081606900698A
:20458000033380B2C3F38F039842ECD2E068836943F08063E6E710B500EB8101D1F8902011
:2045A00013681C46640355BFC0684069C06A006943F0804310F47F0FC0F3074404BF64F39F
:2045C000DF731360D1F8902043F000431360002010BD000000EB8101074AD1F890301A6105
:2045E000D1F890100B68C3F3056262F07F0262F31F630B600020704700000880002310B566
:204600001A460446C0F8103104EB8300C0F81821C0F85421E01801330F2B80F89021F3D114
:204620000823A4F8B6312046FFF7DFFC2046FFF778FD2046FFF729FD01212046FFF7B4FD13
:204640002046FFF742FE2046FFF764FD002010BDD0F8CC301868C0F34140704708B5FFF732
:204660001EFE002008BDD0F810017047D0F814017047084490F89F017047543100EB8100F9
:204680004068704738B50A460E32451800EB4213002485F89F415C60FFF7EBFE38BD000090
:2046A0002DE9F04F8BB00446FFF796FD28B94FF0000840460BB0BDE8F08F2046FFF791FD20
:2046C00001900028F3D010F008089DF8046009D0AC4B1B6820461B689847E36808225A610A
:2046E0004FF00108F2066BD5E26800238DF81B30936923F010039361E3681A6AC2F303035D
:204700008DF81B309DF81B3004EB830302F00F07D3F890301D68C2F34343022BA84648D1ED
:2047200047F6F073134244D09DF81B3004EB4313D3F8BC31EBB39DF81B3004EB4313C2F31B
:204740000A19D3F8BC114A462046FFF73EFC04EB4713D3F8BC214A44C3F8BC21D3F8C421B1
:204760004A44C3F8C4219DF81B3004EB4313D3F8C4219DF81B30543304EB83035A609DF80B
:204780001B3004EB8303D3F890301A6941F6F87313EA12430DD09DF81B3004EB8303C5F36D
:2047A0000565D3F8903065F07F0565F31F68C3F80080E268936943F0100393614FF0010849
:2047C000B30612D5E368D4F8C061DB6A07930336C6F38F06BDF81C50B54204D9D4F8C031E9
:2047E000002B40F0A5804FF00108019B1B0E0293019B5F0112D56369D4F8C0611B690793DD
:204800000336C6F38F06BDF81C50B54204D9D4F8C031002B40F0B8804FF00108029B9E0742
:204820000FD52046FFF738FD002382B204F19009A2461E46039222789642C0F0CE8048EA9B
:204840000308029BD80750D5D4F8CC301D68D3F800A015F002072AF02E0363F3070AEEB294
:2048600007D0484B1B6820465B6898474AF0020A012731072BD516F0040FDFF808914AF0DA
:20488000080A00F0AE82C5F3074505F00605042D01D0022D11D16269042D13680DD103F087
:2048A000030341F27071022B516006D0217A022940F08E822046FFF7C7FCD9F8003020469E
:2048C000DB689847E268936943F00053936116F0200618BF0127D4F8CC3018BF3E4666F34F
:2048E000451AC3F800A048EA0708029B9A060AD5244B1B6820469B689847E3684FF000528B
:204900005A614FF00108019B9B027FF5D2AED4F890100B68C3F3056262F03F0262F31F6301
:204920000B60E3684FF400125A614FF00108C0E6AD00ADB29D4205D9E2689DB2936923F052
:20494000200393612B46D4F8BC11D4F8C06100222046FFF727FBD4F8BC312B44C4F8BC31D8
:20496000D4F8C0315B1BC4F8C031D4F8C4312B44C4F8C431E3680336DB6A0793C6F38F06C5
:2049800028E700BFA4000020AD00ADB29D4205D9E2689DB2936923F0806393612B46D4F800
:2049A000BC11D4F8C06100222046FFF7FBFAD4F8BC312B44C4F8BC31D4F8C0315B1BC4F80A
:2049C000C031D4F8C4312B44C4F8C431636903361B690793C6F38F0615E7039A3241D507AC
:2049E00040F19A80D9F800502B68180440F11A81AA68EB682F6802EA030B1BF0040F5B461B
:204A00003A465FFA8BF117D00421A960D9F80000C16841F00201C1601BF4007F45D0D9F869
:204A20000020D36843F00203D360F1B22046FFF7B2FD4FF4007308E111F0200002D020212F
:204A4000A960E9E7090717D5E968059741F00201E960A1194FF0050C81F890C11021A96009
:204A6000082160F30413A9602046F1B20493FFF792FDDDE90432CFE71BF4806FCCD0E968D8
:204A800041F00201E9602046F1B2CDE904B7FFF782FD1021A960A119082081F890014FF441
:204AA0008061DDE90432A960B6E7D9B213F0010346D0E378012B0CD1D9F800301A69DAF811
:204AC000C031C2F312029A1A06F1540304EB83035A60A1194FF0010381F8903106F1460374
:204AE000002244F8232001237A03AB60C7F3074318D4D9F80020D36843F00203D360F1B23F
:204B00002046FFF748FD1023AB609AF8C83183F001038AF8C8310123013609F104090AF1DC
:204B2000200A88E603F00C030C2BF4D1D9F8003047F000521A604FF0010381F89F31EAE77E
:204B4000880733D5D9F80010CA6863F34102A319CA6093F89021012AD1B203D183F89F1143
:204B6000022372E093F89021052A03D1042283F89F21F5E793F89021062A03D093F89021C7
:204B8000082A06D106F14602002144F822100322EDE7C7F3074707F00C070C2FE0D19AF8B5
:204BA000C83183F001038AF8C831D9E708060FD5D9F80020D36843F00203D360A3190622DD
:204BC00083F89021F1B22046FFF7E5FC80233CE0CB06A0D5C7F3074B0BF00C030C2B0DD199
:204BE000D9F80010CB6843F00203CB60E3782BB9F1B220460492FFF7CEFC049AA319032122
:204C000083F890111BF0040F4FF01003AB6082D1C7F30567D9F8003067F07F0767F31F62CB
:204C20001A6078E7A968EB68286819404F07CBB208D50423AB60D9F80020D36843F0020308
:204C4000D36068E79A0602D52023AB6063E7C1F3072212F0020704D0EB6843F00203EB6031
:204C6000E3E613F0010F13D006F14603F1B244F82370EB6843F00203EB602046FFF78BFC0A
:204C80000123AB604FF00102A31983F8902142E713F008070ED00823AB60D9F80020D36840
:204CA00043F00203D360F1B22046FFF774FCA3190522EAE713F0100F12D006F1460344F8E6
:204CC0002370EB6843F00203EB60E3781BB9F1B22046FFF760FC1023AB600322A319D4E707
:204CE0000F060CD5EB6843F00203EB60F1B22046FFF751FCA319062283F8902166E75906E0
:204D000013D506F14603002244F82320EB6843F00203EB60E3781BB9F1B22046FFF73BFC8F
:204D20004023AB600422A319AFE712F0040210D0EB6843F00203EB60F1B22046FFF72BFCA9
:204D40001023AB60A319082283F890214FF480637BE79F077FF5DFAEEB68A71962F3410328
:204D6000EB6097F89031012BDAB20FD1C0F3074000F00C00082887F89F217FF4F1AE9AF8F7
:204D8000C93183F001038AF8C931E9E697F89031032B03D1022387F89F31E1E697F890317A
:204DA000042B08D19AF8B431012BF3D1F1B22046FFF710FCEEE797F89031052B01D104232B
:204DC000E9E797F89031062B7FF4CAAE0323E2E762694BF68031012B51603FF46EAD01219E
:204DE00068E5D9F8003020461B6998476FE500BF0123C0F81031002070470123C0F8143174
:204E00000020704703460020C3F8140170470020704738B504460021FEF746FFE3680025F2
:204E20009D61E3684FF0FF325A612046FFF779F9C4F81051284638BD38B54FF080730B6026
:204E400001230B7740230C468B714FF480730B840546097900F032FB6179284600F02EFBEB
:204E6000002038BD2DE9F041DDF8188014461F4605460E46FEF7E8FE0020FEF716FF21469F
:204E80002846FFF7D9FF3146C4E923782846FFF7B5FBD4F890301B6898472846BDE8F041D1
:204EA000FEF7F8BE0B1F012B10B5044606D8D0F890305B6C98470C23237010BD0629FCD14B
:204EC0000C230370D0F89030BDE810401B68184738B500238B740B7F013B0C460A2B21D87C
:204EE000DFE803F0060D30374D5A676E8797A4004A79143100F019FB0223237712E04979C1
:204F0000FFF7B7FB012816D1628B94F914305AB1002BB4BF03230523237741F288314A480C
:204F2000FEF7C8FE002063E0002BB4BF0923072323773221F3E7032801BF0B2323770523BD
:204F4000A374EFE70B798A89896800F025FB0423D3E70979FFF78DFB012806D10923237725
:204F60003948FEF7B0FE40B9DCE7042803D1637823700C23C1E70328F2D10B23BDE74B7988
:204F800000EB4313012283F8C9214B798A89896800F0E1FA0623B0E74979FFF76AFB0128AF
:204FA00001D10723A9E70428E1D002283AD10523A3E700220B79114600F0EEFA08239CE71E
:204FC0000979FFF756FB0128054603D1637823700D2392E70328D0D01B48FEF774FE0028EC
:204FE000CBD1042D9ED1637823700C232377032038BD4B7900EB431393F8C92182F0010237
:2050000083F8C92100224B79114600F0A4FA0A2373E74979FFF72DFB0128D7D0022801D12D
:2050200009236AE703287FF47DAFA6E78B7B0133DBB2022B8B7301D801235EE708238B743E
:205040004B780B700220D3E73820002070B594B0022305460C468DF80F30FFF704FBB8B969
:205060002378002B3AD12846FFF7FDFA002800F09D80012323706420FEF71AFE2846FFF723
:20508000EDFAD4F89030DB6814B0BDE8704018472846FFF7EBFA0028E2D023780C2B00F2FB
:2050A000858001A252F823F067500008235100083B510008E5500008AD510008B1510008CF
:2050C00089530008A3530008C353000865530008AD510008AD510008D1530008032B01D0D9
:2050E00003232370D4F890301B69984721462846FFF7A2FED4F890305B689847D4F88C30E7
:2051000004F120015B6828469847284600F0E4F9002301212846237014B0BDE87040FFF7D9
:205120006DBAD5F81431012B40D102233220237014B0BDE87040FEF7BBBDD4F890309B68DA
:2051400098470021284600F09FF980216071284600F09AF920712846FFF780FA064628BB58
:20516000D4F89030DB6898472846FFF771FA0523C0B22370D4F8903084F821009B69984779
:20518000A37994F820202179CDE90063284694F8213000F031F9A37994F820206179CDE997
:2051A0000063284694F8213000F026F914B070BDA378092BFAD8DFE803F0052434586578D4
:2051C00091AAC3CE08222146284600F0C7FE06460028EBD194F829306179A3710122CDE973
:2051E0000003A27003460246284600F02EF9A3792179CDE9006332463346284600F025F948
:20520000D4E712222146284600F0A8FE0028CDD1D4F8903004F12200DB6998470223A37070
:20522000C4E701222146284600F00EFF06460028BCD10220FEF73CFD012384F82030D4F8C1
:2052400090301B6A9847032394F820202179A370CDE900663346284600F0F7F8CDE900668D
:2052600094F8202061793346C7E709222146284600F0E0FF002899D1E38EB3F5806F95D88B
:205280000423CCE7E28E2146284600F0D3FF00288CD1D4F8903004F150025B6A04F13E01DC
:2052A00004F1340098470523B9E794F8302082B140230093214604AB284600F097FE0028E8
:2052C0007FF474AFD4F890309B6A04A898470623A5E7D4F8903047489B6AF7E794F831208C
:2052E00082B140230093214604AB284600F07EFE00287FF45BAFD4F89030DB6A04A8984794
:2053000007238CE7D4F890303A48DB6AF7E794F8322082B140230093214604AB284600F044
:2053200065FE00287FF442AFD4F890301B6B04A89847082373E7D4F890302E481B6BF7E7F6
:2053400094F839202146284600F089FE00287FF42DAF092363E7D4F890305B6B98470923D2
:20536000237023E7D4F890309B6B984701287FF41DAFD4F88C3021461B68284698470028D0
:205380007FF414AF0623EBE7D4F88C3021469B68284698478DF80F009DF80F304BB9072307
:2053A000DEE7D4F88C302146DB68284698478DF80F009DF80F10204614B0BDE87040FFF7EC
:2053C00071BD2146284614B0BDE87040FFF780BD21462846FFF730FDD4F890305B68984758
:2053E000D4F88C305B6804F12001284614B0BDE870401847BC6F000870B501F5E47430F898
:2054000014504C1D00EB441405F07F0684F810219DF8102084F81521BDF81420A4F8162122
:20542000C5F3C01500EB411284F81251002584F8116184F81331A2F8C85113B9012384F8D0
:205440001431FEF786FF002070BD70B54C1DBDF814501AB100EB441686F8102100EB441299
:20546000B2F81661AE4202D00DB1A2F8165100EB441494F813219A4202D00BB184F813315D
:20548000FEF767FF002070BD30B5002300F5647434F9025B002DDAB20ADB03F5E4736FEABF
:2054A00041416FEA514120F8131092B2D0B230BD0133082BECD14FF6FF72F7E7072998BF52
:2054C00000EB41014FF000009EBFB1F89033C3F30E03A1F89033704703460020C3E9E500C3
:2054E000C3F89C037047C878012810B505D002284FF001030BD018460FE00C784C70082497
:205500008B810C708A6008770223CB7005E00A7F0D2A03D10020CB70087710BD0B2AF4D021
:205520000C2AE8D1CB700320F7E738B5541D00EB4414002584F8125100EB42140325C4F876
:20554000BC110821C4F8C01184F8B8511146FFF799F8C0B238BD38B55C1D00EB4414002530
:2055600084F8125100EB43155C01C5F8BC11C5F8C0215AB9012285F8C9210222044419461C
:2055800084F8B821FFF77EF8002038BD95F8C921002A18BF0222F1E770B500EB4315012632
:2055A00085F8B2610226C5F8BC1185F8B861C5F8C0211946FFF766F8002070BD70B55D1DD6
:2055C00000EB4515002685F8126100EB4315C5F8C02195F8C921C5F8BC11B24218BF02229F
:2055E00085F8B8211946FFF74DF8304670BD70B500EB43150126C5F8C02195F8C821C5F8B8
:20560000BC11002A18BF022285F8B26185F8B8211946FFF737F8002070BD000008B5FFF72E
:2056200022F8084B40B1084A0849C3E9001200225A73012283F8232000221A63044B1A7063
:2056400008BD00BF442000205040302055534243EE20002008B552B1012A0ED00120094ACA
:20566000136B0133052B136328BF042008BD064A1378D27800F0FEFCF1E7034A53789278F9
:20568000F8E700BF44200020A420002038B50546FEF7E9FF0E4C18B9012084F82F0038BD03
:2056A0000C4B28461978FEF7E8FF0D280ED1626B094B9A420AD1A26B63689A42ECD194F8CF
:2056C00040000028E9D00228E6D1E6E70220E4E744200020A4200020555342532DE9F04122
:2056E00005460E46FEF7BFFFE0B1A04C94F82430013B072B16D8DFE813F008001700420074
:205700008A00D500F80020012C01994B97495B781F222846FFF752FF4FF48173A3840023D6
:2057200084F84430BDE8F081914B28465978FEF7A0FF012816D100232363022384F8253005
:20574000A3686BB1A364A36AC4E9133394F90C30002B03DA032384F82430E3E70423FAE782
:205760000523F8E7022802D194F82530F3E7042840F08C80012384F854300823EBE77C4E17
:2057800028463178FEF775FF012803D094F82530032B24D0032341F28831764884F82530E9
:2057A00000272763FEF786FAB288A16C8A420CD23378E16C2846FFF71AFFB188A26CE36CC7
:2057C000521A0B44A264E364ACE70029C8D08AB23378E16C2846FFF70AFFA764A2E704280C
:2057E00006D1002384F8543040F20753A38499E7032840F09A8094F844300133DBB2022B19
:2058000084F84430A6D9022384F82F308AE7584E28467178FEF72DFF012821D1F288A16CE8
:20582000002704238A42276384F825300FD27378E16C2846FFF7C2FEE36CF288236513440E
:20584000E364A36C84F844709B1AA3646AE7002986D08AB27378E16C2846FFF7AFFEBCE70E
:2058600002280BD1E16C206DF2887378814218BF891A2846BDE8F041FFF7A0BE042805D10C
:20588000012384F854304FF4A163AFE703287FF449AF94F844300133DBB2022B84F8443093
:2058A000B1D861E70523344E84F82530304BA6620027C4F8357031461B78C6F805703F22F3
:2058C000C6F809702846A28584F83470FFF78FFE062384F8243084F8447006F1240041F2E2
:2058E0008831BDE8F041FEF7E5B9214B28461978FEF7BFFE01280FD100232363052384F813
:205900002530314694F8223084F820302846FFF7BDFE84F82F0005E7042804D1002384F8BB
:205920005430072317E70328B3D01248FEF7CBF900283FF4F7AE012366E700223146284682
:20594000FFF788FE68B994F85430022B7FF40CAF13E7012231462846FFF77CFE00283FF472
:2059600003AF04287FF4DEAE4DE700BF44200020A42000209C20002078200020014B0020EF
:20598000187070476420002038B50C4C6178054639B1FEF700FE61782846FFF78FFD0023F2
:2059A0006370217841B12846FEF7F5FD21782846FFF784FD0023237038BD00BFA420002068
:2059C000F7B591F84330082B06460D4641D191F84530502B3DD191F85220B1F8543091F902
:2059E00052101E4C002995F95A10AEBFA270E270A38095F85A20A8BFE3800029A8BFA27053
:205A0000B5F85C30A178BABFE270A380E380FFF73BFDE17860703046FFF736FD0227E38859
:205A200095F82020617820700193009795F821303046FFF7E1FCA38895F820202178CDE997
:205A40000073304695F82130FFF7D6FC002003B0F0BDD5F890301B6C9847F7E7A420002082
:205A6000012811D10A4A92F84A300133DBB2092B82F84A3004D8074B06221A70D8707047FB
:205A8000044B0A221A7070470228F9D0704700BFA420002064200020F8B504460E46FEF719
:205AA000E2FD08B901241EE0484D2B780A2BF9D801A252F823F000BFEB5A0008A55A0008D2
:205AC000F75A0008635B0008795B0008875B0008BB5B0008955B00089F5B0008475B00081F
:205AE000E55A000804242046F8BD2046FFF796FD02232B70D6E7364F4FF6A1624FF48033ED
:205B0000C6E905232046012307F108023146FFF7EAFC044688B93B7A87F8483053B197F805
:205B20004B303BB9012387F84B30D6F890301B6C9847D8E703232B70D5E70328D3D140F2A7
:205B400009332B80CFE7204673790022314600F091FA04460028C6D11D4B83F848006B782B
:205B6000E9E7204600F036F8044660BB04232B70174B83F84A40B6E7204600F061F80446AD
:205B800008BB0523F3E7204600F0A4F80446D0B90823ECE731462046FFF7A0FD82E7D6F8D6
:205BA0009030DB6B984710F0FF0001D10823A0E701287FF477AF062495E7204600F0CCF8FB
:205BC00004460028CBD0FFF74BFF6BE764200020A420002038B5FEF746FD28B1154CE578E2
:205BE000012D03D0022D18D0032015E01248062300218373114B81600173A36010223F2393
:205C00000F30A381FBF7AAFB07232370032040F20323E0736380257138BDE07B10B9012349
:205C2000E370F9E7012801D1E070F5E70228DBD1F5E700BF642000204420002078200020B9
:205C400070B5FEF710FD28B11E4CE678012E03D0022E1BD0032018E01B4D0823AB60802303
:205C60002B731A4B10221B68A360002105F10F00FBF774FB42F20A53EB8107232370032005
:205C80004FF40173E0736380267170BDE07B88B90E4B1A680E4B1178D970517899709178D6
:205CA0005970D178197091795972D2791A720123E370EAE7012801D1E070E6E70228C9D179
:205CC000F5E700BF642000204420002034200020F0200020F8B5FEF7C6FC28B11A4CE6785C
:205CE000012E03D0022E1DD003201AE0174D80232B73174B3F271B68A3601022002105F12C
:205D00000F00AF60FBF72AFB41F60623EB8107232370032040F205236F74EF74E0736380CC
:205D20002671F8BDE07B40B9094B0A4A1B689B78DB0913730123E370F3E7012801D1E0707F
:205D4000EFE70228D0D1F5E7642000204420002034200020F0200020F8B5FEF784FC28B1FF
:205D60001D4CE678012E03D0022E1ED003201BE01A4D80232B731A4B1B68A3603F27A3780A
:205D800063701022002105F10F00AF60FBF7E6FA40F20633EB8107232370032040F20623E5
:205DA000EF74E07363802671F8BDE07B68B90C4B1A680C4B1178D9715178997191785971D9
:205DC000D2781A710123E370EEE7012801D1E070EAE70228CAD1F5E76420002044200020BD
:205DE00034200020F02000202DE9F843894617461E46FEF738FC40B11E4C94F80380B8F1E2
:205E0000010F04D0B8F1020F27D003202CE01A4DC4F808900021102205F10F00AE60297301
:205E2000FBF79CFA42F60A23EB81C7F307636B74C7F30743AB74C7F30723EB74730AEB75C3
:205E4000C6F347460723032023702F75AE7584F80480E0730223E37006E0E07B08B9012364
:205E6000F9E7012802D1E070BDE8F8830228CCD1F5E700BF64200020442000202DE9F84FEF
:205E8000264F4FF003098B4690461E4687F80090FEF7E9FB40B1224C94F803A0BAF1010F06
:205EA00005D0BAF1020F2CD03878BDE8F88F1D4DC4F808B080231022002105F10F00AE6092
:205EC0002B73FBF74BFA42F60A03EB81C8F307636B74C8F30743AB74C8F30723EB74730A53
:205EE000EB750723C6F347462370022385F81480AE7584F804A084F80F90E37087F8009049
:205F0000D2E7E37B13B90122E27002E0012B02D1E3703B70C8E7022BC6D1F4E7CC00002010
:205F2000642000204420002030B41D4662F07F02CD8205F47F45B5F5407F0A754FF00602E4
:205F4000BDF80C304A7540F2094218BF00220A834B83029A30BCFFF7C6BA000073B5224E2A
:205F600001923368009315464FF4807300220C46FFF7DAFF002834D133681A7884F8222074
:205F80005A7884F82320D9789A7802EB0122A2841A7984F826205A7984F827209A7984F85D
:205FA0002820DA7984F82920082D1AD9597A1A7A02EB01226285D97A9A7A02EB0122A2855D
:205FC000597B1A7B02EB0122E2859A7B84F83020DA7B84F831201A7C84F832205B7C84F827
:205FE000333002B070BD00BF3420002073B5154D1C464FF4007301932B68009342F44073E7
:206000000022FFF791FFB0B929684B78032B10D10A78BDF818305208013A013B92B29BB22B
:206020009A4228BF1A46651E01EB4203994204D114440023237002B070BD11F8026F05F875
:20604000016FF3E7342000204FF4A06310B48B820023CA8210BC8B611A46FFF744BA4FF4AD
:20606000106310B48B820023CA8210BC8B611A46FFF739BA5B0110B403444FF481744C6120
:2060800012F0800F4FF000040A834C8314BF83F8C84183F8C941002310BC1A46FFF723BAD2
:2060A0002DE9F04F93461A7802705A7842708BB09A780891D97802EB012242801A7902711B
:2060C0005979417199798171D979C171197A0172BDF85010092940F2A880022A2FD8544A3C
:2060E000002792F800C054880197092142888A4204D84F4B00205880187021E01A7813441B
:2061000011445A78042A89B2F0D193F80380B8F1020FEBD81A7802925A791E7903929A796B
:206120000492DA790592032E1A7A06920BD9019B13B13F4B83F800C00FB13D4B5C80032032
:206140000BB0BDE8F08F93F90220DDF820900792154605EB4505ED0002EBC20293F802E0F4
:2061600009954A440025B542C0DA93F800904B44494493F80190B9F1050F89B2F3D1DDF858
:206180001C90CC4534D0029C14704FF004045470039C5471049C9471059CD471069C1472FA
:2061A000012482F802E082F803801671F4460194099C93F8009004EBC5070BEB07040BF88C
:2061C00007905F7867709F78A770DF78E77093F805901F7907EB0927A7809F79A7715F7995
:2061E0001C79013504EB0724A4B26DB20127BAE793F80590CA4693F8049009EB0A294C4575
:206200003FF774AF029C14704FF004045470039C5471049C9471059CD471069C82F802E00B
:2062200082F8038016711472C2E7002088E700BF0021002073B50C4E01923368009315467E
:206240004FF4007300220C46FFF76EFE48B93368009504F1500204F13E0104F13400FFF7E7
:206260001FFF02B070BD00BF3420002031303A31353A3133004170722031322032303235C0
:2062800000332E34340000002110422063308440A550C660E770088129914AA16BB18CC142
:2062A000ADD1CEE1EFF13112100273325222B5529442F772D662399318837BB35AA3BDD3C3
:2062C0009CC3FFF3DEE36224433420040114E664C774A44485546AA54BB528850995EEE503
:2062E000CFF5ACC58DD55336722611163006D776F6669556B4465BB77AA719973887DFF783
:20630000FEE79DD7BCC7C448E5588668A7784008611802282338CCC9EDD98EE9AFF94889BA
:2063200069990AA92BB9F55AD44AB77A966A711A500A333A122AFDDBDCCBBFFB9EEB799BC2
:20634000588B3BBB1AABA66C877CE44CC55C222C033C600C411CAEED8FFDECCDCDDD2AAD82
:206360000BBD688D499D977EB66ED55EF44E133E322E511E700E9FFFBEEFDDDFFCCF1BBF82
:206380003AAF599F788F8891A981CAB1EBA10CD12DC14EF16FE18010A100C230E3200450F7
:2063A000254046706760B9839893FBA3DAB33DC31CD37FE35EF3B1029012F322D2323542E2
:2063C000145277625672EAB5CBA5A89589856EF54FE52CD50DC5E234C324A01481046674E2
:2063E000476424540544DBA7FAB79987B8975FE77EF71DC73CD7D326F2369106B0165766A2
:206400007676154634564CD96DC90EF92FE9C899E9898AB9ABA94458654806782768C01899
:20642000E1088238A3287DCB5CDB3FEB1EFBF98BD89BBBAB9ABB754A545A376A167AF10AE1
:20644000D01AB32A923A2EFD0FED6CDD4DCDAABD8BADE89DC98D267C076C645C454CA23C61
:20646000832CE01CC10C1FEF3EFF5DCF7CDF9BAFBABFD98FF89F176E367E554E745E932EA1
:20648000B23ED10EF01E44534B4100000000024AFF000000000000000000000000000000B1
:2064A000000202013C01C800070A000000B80B000000000000010050002C01D007010100A7
:2064C000000C8F44534B41000000000001FF00FFFFFF00FFFFFF28000009121B242D363FE0
:2064E00048415A536C657E7719100B023D342F265158434A757C676E323B2029161F040DAC
:206500007A7368615E574C452B2239300F061D14636A7178474E555C646D767F4049525B8B
:206520002C253E3708011A137D746F6659504B42353C272E1118030A565F444D727B60696B
:206540001E170C053A3328214F465D546B627970070E151C232A31384148535A656C777E4B
:2065600009001B122D243F3658514A437C756E671019020B343D262F737A6168575E454C2B
:206580003B3229201F160D046A6378714E475C55222B3039060F141D252C373E0108131A0B
:2065A0006D647F7649405B523C352E2718110A03747D666F5059424B171E050C333A2128EB
:2065C0005F564D447B7269600E071C152A233831464F545D626B707910200021007F22DAFB
:2065E0001221048300030C0F30333C3FC0C3CCCFF0F3FCFF00401454A0C0A1C88000C0D563
:2066000080D300408D14DA02D9F1DB20A42E00000000000000000000000000000000007C57
:20662000000000000006000000001C001C0000000000000020F82020F8200107010107019A
:20664000007008FC08C8000202070201182498402010020100060906008058649840000375
:20666000040403040000000E0000000000000000000000F00C0200000001060800020CF0F2
:206680000000000806010000004050A05040000001000100004040F0404000000001000038
:2066A00000000000000000080A060000004040404040000000000000000000000000000082
:2066C0000606000000008040300C00060100000000F8844424F8000304040403001008FCA9
:2066E000000000000007000000080484443800060504040400044464548C000204040403D3
:2067000000C0B08CC080000000000700007C4444448400020404040300E0382424C0000336
:2067200004040403000404E41C0400000700000000B8444444B80003040404030078848469
:20674000847800040402010000003030000000000303000000003030000000080A06000054
:20676000000040A01000000000000100002020202020000101010101000010A04000000093
:20678000010000000004C444443800000600000000E010C808F000010204050100F08884B1
:2067A00088F000070000000700FC444444B800070404040300F008040408000304040402A4
:2067C00000FC040408F000070404020100FC4444440400070404040400FC444444040007F5
:2067E0000000000000F0080444C800030404040700FC404040FC000700000007000004FCB5
:206800000400000004070400000004FC040000040403000000FC8040B00C000700000106D0
:2068200000FC0000000000070404040400FC30C030FC00070001000700FC304080FC00072F
:206840000000010700F8040404F800030404040300FC8484847800070000000000F804041B
:2068600004F8000304060C0B00FC4444C438000700000106003844444488000204040403CD
:20688000000404FC040400000007000000FC000000FC000304040403003CC000C03C0000E3
:2068A0000106010000FC00F000FC000007000700000CB040B00C000601000106001C608018
:2068C000601C00000007000000048444340C000605040404000000FE02020000000F0808F1
:2068E000000C30408000000000000106000202FE00000008080F0000001008FC0810000048
:2069000000070000000000000000000404040404000002040800000000000000000090902E
