:020000040800F2
:10000000D80600201D180008510100085101000801
:100010005101000851010008510100085101000878
:10002000510100085101000851010008D9010008E0
:100030005101000851010008510100085101000858
:100040005101000851010008510100085101000848
:100050005101000851010008510100085101000838
:100060005101000851010008510100085101000828
:100070005101000851010008F52200082D23000855
:10008000F52200082D230008510100085101000845
:1000900051010008510100085101000851010008F8
:1000A00051010008510100085101000851010008E8
:1000B0005101000851010008E1120008B5200008B4
:1000C000A12B0008B5200008A12B00085101000851
:1000D00051010008510100085101000851010008B8
:1000E00051010008510100085101000851010008A8
:1000F0005101000851010008510100085101000898
:100100005101000851010008510100085101000887
:100110005101000851010008510100085101000877
:100120005101000851010008510100085101000867
:100130005101000851010008510100085101000857
:10014000510100085101000851010008A1420008B6
:100150002DE9F04F684600F001BF01B0BDE8F08F17
:100160002DE9F14FC0F800D010468847009A0021D1
:100170001160FFF7F2BF000038B5036804462BB3E7
:10018000EFF314839D0702D5114B186000DFEFF3E6
:1001900009814FF0FF330B600E4B8B61CB6903F08D
:1001A0008073CB6122685007A2F1200544BF43F45D
:1001B0000073A2F1240528464FF0200248BFCB610E
:1001C00001F003F985F309880023236038BD00BFDF
:1001D000D80600205B01000810B5034C2068FFF72B
:1001E000CBFF0023236010BDD80600200346014446
:1001F000104610B5064C8B4200D110BD13F8012BF0
:1002000082EA102234F8122082EA002290B2F2E749
:100210003A68000813B500230446ADF8063000F034
:10022000B9F8022104F17C020DF1060000F0E2F8B9
:1002300002B010BDF8B54FF6FF750F4C0F4FB4F874
:100240007C302646AB4208D12388AB4211D02378BC
:10025000022B07D02046FFF7DDFF8034BC42EED1F1
:10026000002606E02A4680212046FFF7BFFF00282F
:10027000F0D13046F8BD00BF00F8010800000208C8
:10028000F8B5FFF7D7FF044600286FD04FF6FF738D
:100290000588ED1A18BF01254A26364B3246002143
:1002A000184601F079F80A270346DF766FF0470712
:1002B00046706FF03706DF770B2702211E76072680
:1002C00083F820705027FF220170C174017501214D
:1002D0009E7683F82E600C2683F829702C27827076
:1002E00041753C2083F833608F2683F82B706FF0C4
:1002F0002F079875002083F834601F4E83F82D7007
:1003000037683679D975587683F8271083F82A002C
:1003100083F82C1083F82F1083F83010C3F8357051
:1003200083F83960588783F83C0083F83E1083F8DF
:100330003F2083F8412083F8422083F8432083F84C
:10034000452083F8462083F84720282283F8482058
:1003500075B16278022A0BD94A2A28BF4A22A11C09
:10036000981C023ABDE8F84000F0E3BF054693E769
:10037000F8BD00BFDC0600203A6A0008044AD368D2
:1003800013F00103FBD13421D1601361704700BF2A
:10039000002002400A4B1A6842F001021A601A68F3
:1003A00091070AD5074B1A69120641BF064A5A60DF
:1003B00002F188325A60FFF7E1BF00BFEFE700BFEC
:1003C00000100240002002402301674508B5FFF7F6
:1003D000D5FF074B1A6942F002021A6158611A6987
:1003E00042F040021A61BDE80840FFF7C7BF00BFF6
:1003F0000020024070B50C461546FFF7BFFF094EBE
:100400002D1A0444844205EB000200D170BD33690B
:1004100043F00103336130F8023B1380FFF7AEFF76
:10042000F0E700BF0020024030B1044B044A1B68D3
:100430001070181FFFF7A0BE704700BF0400002017
:100440002807002010B5084C0A462368191D2160B2
:1004500001461846FFF784FE00222368043B236010
:10046000024B18781A7010BD0400002028070020E5
:1004700070B505460E46144601F018F808B104F0B0
:10048000010422463146284603F090FABDE8704048
:10049000FFF7CABFF7B51C4601AB0F46154603F080
:1004A000C9FA064601982CB120603046FFF7BCFF20
:1004B00003B0F0BDA842F8D22A1A2146384400F011
:1004C0006BFFF2E708B503F045FBBDE80840FFF716
:1004D000ABBF08B503F0D5FBBDE80840FFF7A4BFEC
:1004E00008B503F031FDBDE80840FFF79DBF08B532
:1004F00003F012FDBDE80840FFF796BF10B9024BAC
:10050000187870470120704708000020044B1B78C2
:10051000DB075DBF034B9868C0F3402000207047A5
:100520000800002000100140002070472DE9F04134
:1005300000F0F8FD0546DFF82C800B4F0B4EFF2135
:10054000404600F06FFBC4B2FF2C07D000F0EAFD7C
:100550003B68401BDB0873439842F0D32046BDE85C
:10056000F08100BF003800403000002020A10700CB
:1005700010B5084C204600F035FB4FF48052064B76
:100580002046FF211A6100F04DFB2046BDE81040D7
:1005900000F028BB00380040000C014070B50E464A
:1005A000044690B300224FF40071FFF71FFE05468A
:1005B000FFF7BCFFFF282AD13146174800F02BFB7C
:1005C000FD2E26D0144800F016FB04F500762346D5
:1005D0001988114849BA023489B200F01CFBA642BE
:1005E000F5D10D4800F0FEFA29460B4800F013FB48
:1005F000094800F008FBFF21074800F013FB00F05A
:100600001F00431F5842584170BD0546D0E70020E7
:10061000FAE70120F8E700BF0038004038B50C4683
:10062000D0B90E4D2B78DB0714D4A9B94FF0805206
:100630000B4B1A61FFF77AFFFF2808D00124FFF760
:1006400097FF2B7843F001032B70204638BDFFF74E
:100650008FFFFAE70324F8E70424F6E708000020F8
:10066000000C01402DE9F34104460D4600F05AFD0F
:100670000646DFF89480254FFF21254800F0D2FA86
:10068000C0B2FF280CD100F04DFDD8F80030801B1F
:10069000DB087B439842EFD3002002B0BDE8F08135
:1006A000FE28F9D11A4800F0A6FA6619B6B24FF63C
:1006B000FF71174800F0B6FA030A04F8023BA3B230
:1006C000B34204F8010CF2D14FF6FF71104800F06C
:1006D000A9FA0022030A29468DF80500601B8DF84F
:1006E0000430FFF783FD0221024601A8FFF77EFDDB
:1006F0000446074800F076FA054800F084FAB4FA98
:1007000084F04009C9E700BF30000020A086010046
:10071000003800400B4B1A684FF47A735A43002399
:10072000520882420BD85A01DB00074903F0380314
:1007300002F4807243F451734A600B6070475208B0
:100740000133EEE734000020003800402DE9F04F7F
:1007500006460C460325DFF8D4B085B00F0EC1F372
:100760000748C1F30729320609D44FF08053304AB5
:100770001361FFF7DBFEFF280BD0FF2006E000210E
:100780007720FFF7E3FF30F00103EED005B0BDE8BE
:10079000F08F06F07F0302A88DF8083006210023B1
:1007A00002468DF809708DF80A808DF80B908DF84F
:1007B0000C40013911F0FF014FEA43032FD14FF0F4
:1007C000060A43F001031B488DF80D3012F8011B97
:1007D000019200F020FA0AF1FF3313F0FF0A1548E6
:1007E000019AF3D14FF00A0A00F0FCF9114AFF21F7
:1007F000104600F017FA0306014605D50AF1FF334B
:1008000013F0FF0A0B4AF2D111F0880FC8B2BDD025
:10081000013D15F0FF05B9D0FFF7AAFEA3E710F8D8
:1008200001CB8CEA03031BF80330C2E78C6A000893
:10083000000C0140003800402DE9F04385B000284D
:1008400040F0FC807E4D7F4B287840F001002870FE
:100850009B689A0540F1AB807B4E1322F3690C2113
:1008600043F48043F361794800F038FC0B220D21FA
:10087000764800F033FC18220E21744800F02EFC5C
:100880000B220F21714800F029FC4FF4C870FFF7CC
:1008900041FF6F4800F0A6F90A246D4FFF2138464A
:1008A000013C00F0BFF914F0FF04F7D121464020CD
:1008B000FFF74CFF0128014660D17B20FFF746FF80
:1008C00020F00407012F59D14FF4D5714820FFF7CC
:1008D0003DFF01286ED10427DFF87481FF214046D7
:1008E00000F0A0F9013FC0B240EA042417F0FF076E
:1008F000A4B2F3D1C4F30804B4F5D57F3ED100F01F
:1009000011FC0446534FDFF850814FF08041E9203D
:10091000FFF71CFF014640BB7A20FFF717FF68BBBB
:10092000FF214B4800F07EF90446FF21484800F0C3
:1009300079F9FF21464800F075F9FF21444800F09D
:1009400071F923061AD514F0400F14BF07220322B1
:10095000424B1A704FF400715020FFF7F7FE68B950
:100960002B7823F001032B7008E000F0DBFB3B68E1
:10097000001BDB0808FB03F39842C6D3FFF7F8FD22
:10098000297811F001043DD10A2000F0C9FA46F29D
:10099000A810FFF7BFFE21464A20FFF7D7FE18B97F
:1009A00010216846FFF75EFEFFF7E2FD287805B0EC
:1009B000BDE8F0830223DFF8A4802146E92088F80F
:1009C0000030FFF7C3FE30F0010316BF88F8007057
:1009D000E927412700F0A6FB0446DFF87880DFF81E
:1009E000789000213846FFF7B1FE0028B2D000F021
:1009F00099FBD8F80030001BDB0809FB03F3984291
:100A0000EFD3BBE70022124B0C211A60F3691822C6
:100A100023F48043F3610D4800F060FB18220D21A0
:100A20000A4800F05BFB18220E21084800F056FB34
:100A300018220F21054800F051FBB7E70420B6E764
:100A4000080000200010014000100240000C01408E
:100A5000003800403000002040420F0034070020E2
:100A60002DE9F74F894617461D46002843D1002B34
:100A700041D0DFF88C8098F80030DA073DD4214B64
:100A800003261B785B0758BF7F02012D14BF4FF070
:100A9000520A4FF0510A39465046FFF757FE0446B6
:100AA000B8B94B46AB464FF4007118460193FFF7B7
:100AB000D9FD18B1BBF1010B019B19D1012D03D058
:100AC00000214C20FFF742FEFFF752FDBBF1000F63
:100AD0000AD0013E16F0FF06DDD1012498F800305F
:100AE00043F0010388F80030204603B0BDE8F08FE2
:100AF00003F50073D7E70424F6E70324F4E700BF07
:100B000008000020340700202DE9F74F88461546DD
:100B10001E4600285DD1002B5BD0DFF8C09099F80D
:100B20000030D90757D40327DFF8B4A09AF8003073
:100B30005A0758BF6D02012E0ED129465820FFF7E3
:100B400005FE044680BBFE214046FFF727FD002836
:100B500039D1FFF70DFD27E09AF800309B071DD132
:100B600029465920FFF7F2FD0446E8B94346B3464B
:100B7000FC2118460193FFF711FD18B1BBF1010BE1
:100B8000019B1DD1FD210020FFF708FD0028E0D0CA
:100B9000FFF7EEFCBBF1000F06D116E03146D7207F
:100BA000FFF7D4FD0028DBD0013F17F0FF07C2D1CB
:100BB00099F80030012443F0010389F8003004E083
:100BC00003F50073D4E7FFF7D3FC204603B0BDE87C
:100BD000F08F0424F9E70324F7E700BF08000020A2
:100BE00034070020836803F08203022B01D1C3681D
:100BF000704700BFF6E708B5FFF7F4FF036843F45A
:100C00000063036008BD08B5FFF7ECFF036823F439
:100C10000063036008BD83689B0701D5C16070470E
:100C200000BFF8E783689A0706D5C1608368DB07D1
:100C3000FCD5C06880B2704700BFF3E703688B4201
:100C400038BF1A7003680133036070472DE9F04F15
:100C50008146904687B01D464B1E02900093C718F0
:100C6000C2461AF8012B52B9029BBB4200F2018125
:100C70001A700298A0EB090007B0BDE8F08F252A92
:100C800005D0394602A8FFF7D9FFD046E8E700268D
:100C900034461CE0A2F16303152B26D8DFE803F0ED
:100CA00074562525253F5625252525254A11252518
:100CB0005B2558252511392A22D9582A15D144F403
:100CC000807444F0100437E055F8046BC246D046F7
:100CD00018F8012B782A08D8622ADBD8302A0CD0E1
:100CE000E9D8232A06D02A2AEED0394602A8FFF7EF
:100CF000A5FFB5E744F48064E8E744F40064E5E761
:100D0000A2F13006424612F8013BA3F13001092955
:100D1000DCD80A2101FB06369046303EF2E79AF80D
:100D20000130682B06BF44F480540AF1020844F4F1
:100D30000054CBE744F00804E00455F8043B04F405
:100D4000007225D5DBB224F4007435E044F400745D
:100D500044F00A04F0E755F8044B2644A6EB040AD5
:100D600014F8012B5AB9BAF1000F7FF779AF20229E
:100D7000394602A8FFF762FF0AF1FF3AF3E7394666
:100D800002A8FFF75BFFE9E755F8042BD2B2ACE706
:100D9000A10438D5002A34D01BB2002BD3DA2005A9
:100DA00008D52D22394602A80193FFF747FF019B82
:100DB00024F40074013E5B42610512D504F01F0A61
:100DC000BAF1080F02D0BAF1100F0AD13022394619
:100DD00002A80193FFF732FFBAF1100F019B15D063
:100DE000013E0DF10C0AC3B930230DF10D0B8DF846
:100DF0000C3014F4006F14BF30222022ABEB0A0336
:100E000028E09BB29FE7002A9DD0C6E77822019395
:100E1000023EFFF713FF019BE3E7D346184A14F4A1
:100E2000807F184908BF114604F01F02B3FBF2F09F
:100E300002FB103C11F80CC00BF801CB9C4662453C
:100E40000346F3D9D5E7394602A80193FFF7F6FE2A
:100E5000019B013EB342F6DBA30504D52D223946A2
:100E600002A8FFF7EBFED3453FF4FAAE1BF8012DC5
:100E7000F5E7B9459CBF009B09F80320F9E600BFE0
:100E8000DD740008CC7400080CB407B504AB53F84B
:100E9000042B0193FFF7DAFE03B05DF804EB02B018
:100EA00070470000EFF3088181F30988022181F384
:100EB0001488BFF36F8F104B83F308880F4B104AD1
:100EC0009A605A6942F404725A615A6A42F4E02202
:100ED0005A624FF07F42DA614FF47F021A62BFF329
:100EE0004F8FBFF36F8F4FF0E0236FF07F425A6157
:100EF00001221A61704700BFD802002000ED00E017
:100F0000000000084FF0E0218B698A699B1A23F0EA
:100F10007F43984202D9C01A1346F6E77047000093
:100F2000024B1B68DB085843FFF7ECBF3000002082
:100F3000044B1B68DB0843434FF47A705843FFF7B8
:100F4000E1BF00BF3000002072B6024B024ADA60F7
:100F5000FEE700BF00ED00E00400FA0508B5EFF37E
:100F60000383036A5B07EFF309830F4A4ABF243008
:100F700044302033904206D30C4A824203D920F0F9
:100F8000030082420BD80A4A934206D3094A9A4286
:100F900003D923F003039A4203D8FFF7D5FF0430A7
:100FA000EFE70433F7E700BFD8000020D8020020A5
:100FB000D8020020D806002008B5FFF773FF3E4B8B
:100FC0003E491B68C3F30313042B0CBF012300230A
:100FD0000B703B4B0ED13B4A4FF0900CB2F8E02027
:100FE0002020802A04BF4FF480625A604822C3E95F
:100FF00002C218609B68344A5B0943F01003136017
:10100000324B1A6842F480321A601A6890034AD54B
:101010000A78002A49D0DA6A22F0074242F00072C8
:10102000DA622B4A5A601A6842F080721A601A68B3
:1010300092013CD50A781AB15A6D42F030025A65D5
:101040005A6842F002025A605A6802F00C02082AFA
:101050002FD10A781AB15A6D22F030025A651A68F7
:1010600022F001021A600722DA6140F61D029A613D
:1010700001225A614FF08062164B5A604FF04433A0
:1010800002F1705202F5843253601360C2F80434E6
:10109000C2F80034C2F80438C2F80038BFF34F8FEA
:1010A000BFF36F8F08BD00BFAFE70B4ABAE700BFC1
:1010B000BDE700BFC8E700BF00ED00E03507002036
:1010C0002800002000F7FF1F00200240001002400F
:1010D00000E445280000014000C41D00130914BFAE
:1010E00001234FF48033072903FA01F3036110B59C
:1010F0004FF00F0302F00F020AD908394468890043
:101100008B4024EA030302FA01F11943416010BD48
:10111000046889008B4024EA030302FA01F11943B1
:101120000160F4E74FF0E022054B1B68926903F081
:101130007F401043834238BF00F17F40C043704777
:101140003807002008B5FFF7EDFFC3430146044808
:1011500001F5000140F8043BBDE8084000F054B838
:101160003807002010B500F0A9F84FF0E023094C33
:101170009B69002244F8043B2046074900F03EF8F2
:10118000FFF7D0FF00F500012046BDE8104000F059
:101190003BB800BF38070020451100080C2310B5EC
:1011A000144AB0F5803F1360134B1B6811DAD9085D
:1011B0000D28B3FBF1F3B8BF0D20013B93620C384F
:1011C000D06201220B4B5A6100221A610D221A6073
:1011D00010BD642404FB03F1DB086343B0FBF3F0B0
:1011E0004FF6FF730A380139984228BF18469162BA
:1011F000E6E700BF00080040300000200123C0E9FE
:101200000112C36070470000F8B504460D46EFF3C5
:101210001186731EDBB23F2B02D9402383F3118862
:10122000E368154F012BF6B207D03A463B689C4263
:10123000D96814D101231160E3602560FFF772FFC4
:101240003B680246281A0C4D6BB9E3602C603B6882
:10125000A34201D1FFF7A2FF86F31188F8BD03F185
:101260000C020B46E3E71968891A8142EDDA03F1B3
:101270000C05DB68E8E700BF4C07002010B5EFF372
:1012800011835A1ED2B23F2A02D9402282F311881A
:10129000DAB2C368012B07D0074B19688842CC68C3
:1012A00005D11C600123C36082F3118810BD01F1D8
:1012B0000C032146F2E700BF4C0700200022064B3A
:1012C0005A600122DA604022044B83F81E234FF05B
:1012D00080421A60704700BF0008004000E100E053
:1012E0000022F8B501270B4B0B4E1A61346804B984
:1012F000F8BD2568FFF716FF281A0C2803DDBDE8A6
:10130000F840FFF74BBFE368E7603360D4E9013092
:101310009847EBE7000800404C0700202DE9F00754
:10132000B1E8F807A0E8F807203AF9D1BDE8F007DE
:101330007047F8B532F01F0706460D46144610D028
:1013400040EA01039B070CD13A46FFF7E7FF3D4413
:10135000F31904F01F04013B2C44A54203D130468D
:10136000F8BD3346F7E715F8012B03F8012FF4E732
:101370002DE9F007CDB24FF001346C4323462546EA
:1013800026462746A046A146A246A0E8F807203AEE
:10139000FBD1BDE8F0077047F8B532F01F050646EF
:1013A0000F4614460CD083070AD12A46FFF7E0FF08
:1013B00004F01F0472191444A24203D13046F8BD50
:1013C0003246F8E702F8017BF6E7884230B405467A
:1013D0000C4602D230BCFFF7ACBF0346144482185F
:1013E000934202D1284630BC704714F8011D02F820
:1013F000011DF5E7034610B502449A4201D10020D1
:1014000005E013F8010B11F8014B001BF5D010BDDE
:10141000034610B501390244934201D1002010BDAA
:101420001C7811F8010F201AF9D1002CF7D00133E4
:10143000F2E7421E11F8013B02F8013F002BF9D1FF
:1014400070470000014B1B685B681847380000209C
:1014500070B50D4B0D4D04462B601B689847C207B5
:101460000DD50B4B1B78012B09D103F037F830B9A0
:10147000084E204633689847C30758BF2E60204661
:10148000BDE87040FFF7DEBF8C0000203800002070
:10149000F81700200C00002010B4034C2468A46846
:1014A000A44610BC604700BF38000020014B1B68F9
:1014B0009B6918473800002070B5054C054E064D55
:1014C0002046FEF783FF33681C44AC42F8D370BD5E
:1014D000008000082C00002000F8010808B502F088
:1014E000CFFD054B1B78184300F00303032B0CBF03
:1014F0000120C0F3800008BDCA190020F8B50546D8
:1015000000244FF6FF760B4F05206400FFF710FD17
:10151000A4B24DB102F0B4FD3B78034308BF44F0E0
:101520000104B442F0D1F8BDFFF7D8FF0443A4B2E0
:10153000F7E700BFCA19002008B5084B1B78012B3C
:1015400005D0022B09D1BDE8084001F021BC00F014
:1015500055FFBDE8084000F059BF08BDFC1700204A
:1015600008B50A4A03461178012905D002290BD192
:10157000BDE8084001F04EBC0022062000F006FF46
:10158000BDE8084000F042BF08BD00BFFC170020C6
:10159000F8B50C4601460E48FEF794FF4FF6FF756E
:1015A0000C4F0CB92846F8BDB4F5006F264628BF8D
:1015B0004FF400660023324639460548FEF76AFFBD
:1015C0002A4631463846FEF711FEA41B0546E8E7D9
:1015D000500700207009002038B5144C0346144A07
:1015E00004F5226104F53460FEF77AFF94F83E3A80
:1015F000BBB14FF480710F4A04F63E2304F67430F9
:10160000FFF742FC04F5226104F53460FEF76FFF3A
:1016100094F83E5A3DB904F53460FEF75AFF284667
:1016200038BD0125FBE70225F9E700BF5007002080
:101630007D750008EE7400082DE9F0476C4888B00D
:10164000FFF7CAFF6B4E012886F8740C04D16A4874
:10165000FFF7C2FF86F8740C96F8744C6CBB6748B1
:10166000FFF77EFF66490122A1F67430FEF700FF06
:10167000F16860480439FEF725FF042223465D48DF
:101680000DEB0201FEF706FFBDF804305BBA44F231
:1016900046629BB2934214D044F25962934249D1BC
:1016A0002746F56886F8744C3CB9A5F58063B3F518
:1016B000BA3F41D9032486F8744C002008B0BDE835
:1016C000F08721464B48FEF7FDFE0C22494802A94F
:1016D0002346FEF7DFFE04224A4902A8FFF798FEE0
:1016E00018B100252F460324DCE70C220399049B44
:1016F000043102FB0311FFF74BFFB8B903993D48D2
:10170000FEF7E0FE25463B4F049B9D42E9D20023B5
:101710000C22384605A9FEF7BDFE9DF81430012BBA
:1017200002D1DDE90675BDE70135EDE7254627461F
:101730000424B7E72546D5E7AB07BBD179192D4877
:101740000439FEF7BFFE234604222A4805A9FEF706
:10175000A1FEBDF814305BBA44F259629BB29342C9
:10176000A8D12948FFF7FCFE29463846FFF710FFAD
:1017700000283BD12548FFF7F3FEFEF70BFEFFF7ED
:101780009BFE0123224886F8753CFFF7E9FE3946A7
:101790001848FEF797FEA846DFF87890DFF878A0A3
:1017A000B8F5006F474628BF4FF4006700233A465C
:1017B00051461048FEF76EFE4A4639465046FEF73F
:1017C00019FE3A4651464846FFF714FE60B9B8EB99
:1017D0000708B944E4D14FF6FF7229460D48FEF7D9
:1017E00005FD00283FF467AF052464E7042462E7A1
:1017F000F1740008500700200375000811750008F7
:10180000C4120020157500081A7500081E7500081E
:1018100022750008008000087009002070B5694832
:10182000694986B0884203D0684A121AFFF781FDE1
:101830006748684D00212A1AFFF7AEFD664B1B680A
:10184000C3F30313042B0CBF01220022634B1A7055
:1018500041D0634A6349D36943F0C053D3610B68F5
:1018600043F480730B604DF6AD615F4B586888425E
:101870002FD14BF6EF619C68661A744274410021C7
:10188000E4B299605960D1615849594B0A68594E80
:101890009A4208BF44F0010400220A60296864B239
:1018A000B1422A6019D0E4B2534A1360534A13601C
:1018B000FFF782FBFFF756FC02F00EFCBCB9FFF706
:1018C0000DFEA0B92E60BFF34F8FBFF36F8FFFF7F0
:1018D0003BFB0024D3E70024D6E734B94849D1E9DB
:1018E0000021501C01D0954688470124DCE7454D76
:1018F000C820FFF71DFBFEF7C3FC00F09BF82C7817
:10190000012C35D0022C02D13F48FFF729FE0120DF
:10191000FFF712FE02F0C0FD3C4802F0D1FD0020AE
:10192000FFF7ECFD0120FFF7E9FD2978012905D13A
:101930004FF0FF320020364B00F028FD3548FFF70E
:101940000FFE354C354E04F67865314601222846A7
:1019500002F008F80146F0B93148FEF773FD03467E
:10196000E0B994F8743C53BB0020FFF7E5FDAEE707
:101970002C4901A8FFF75DFD002201AB114610467E
:1019800000F004FD002221461046274B00F0FEFC2B
:1019900000F03CFDBBE702F099FDD6E7234A142195
:1019A00001A8FFF771FA01A8FFF7DAFD94F8753C7A
:1019B0000BB1FFF781FD0020FFF7A0FDD4E71C4A23
:1019C000EDE700BF0400002094750008D40000205B
:1019D000D80600201021002000ED00E0350700208F
:1019E0000010024000700040006C00400000002029
:1019F000EFBEADDE2CBAB539D8020020D8000020E9
:101A000000800008FC17002026750008C61300207F
:101A10003A75000845750008500700207D750008DC
:101A2000391600082A75000835680008497500084D
:101A30004F75000800232DE9F047DFF88C8086B051
:101A4000224E234901A8B8F81F5033704FF0E02709
:101A5000FFF7EFFCDFF87CA0DFF87C90BC6900F0BA
:101A6000E5FC40B101231D4901A83370FFF7E1FCFB
:101A700006B0BDE8F087B8F825309B0712D0002DDE
:101A8000F6DD6420FFF754FA4FF47A72BB69E41A6A
:101A9000D9F8003024F07F44DB085343B4FBF3F45F
:101AA0002D1BDBE701F0EEF90223337001F06AF938
:101AB00052460346142101A8FFF7E6F901F062F946
:101AC0000328DCD1D4E700BFDC060020FC1700208F
:101AD0005575000863750008300000205A7500082D
:101AE0000121064B1B68DB785A0903F01F0301FA3A
:101AF00003F30349403241F82230704700180020B8
:101B000000E100E0F0B5124B4FF0E0251A6842F218
:101B100010730446D2080F4E5A43AF6971684B697F
:101B200034EA030301D1012008E0486910F45F4062
:101B300005D000204B6923F45F434B61F0BDAB69D6
:101B4000FB1A23F07F439342E9D901233372F5E76F
:101B50003000002000180020084B5B681A6842F42F
:101B600000721A601A6812F40072FBD104490978F5
:101B700011B11A6001221A60704700BF00180020DE
:101B800035070020024B5B6818610420FFF7BABFDD
:101B90000018002010B50446FFF7F4FF44F00400DD
:101BA000FFF7F0FF2046BDE81040FFF7EBBF30B570
:101BB00080248B18994200F1020001D1500030BD01
:101BC00000F8024C11F8015B00F8015CF2E700003C
:101BD000F0B585B004460B466F46284D05F1100C54
:101BE0003E4628686968083503C665453746F7D11B
:101BF000032A20D1A34220D103F180010A4603F534
:101C0000807512F8010D04AE06EB101010F8100CE0
:101C1000934205F8010DF4D1803411F8013D03F031
:101C20000F0310336B4413F8103C914204F8013D4C
:101C3000F3D105B0F0BD012A10D12546184603F1B5
:101C4000800610F8011B01F00F011031694411F8F2
:101C5000101C864205F8011BF3D180349207E8D5A9
:101C600003F1800113F8012B04A800EB121212F803
:101C7000102C8B4204F8012BF4D1DAE78C6B0008AE
:101C80002DE9F341234E0546777A0DF10408022F22
:101C900039D101222049FFF78AFFB37A2C18402B53
:101CA00018BF0027F37A8DF80470503B8DF805308B
:101CB0000DF10602337B2046002B14BFAF23AE2369
:101CC00002F8013B4146A2EB0802FFF770FF134BFD
:101CD0000444B3F82530DB0605D52046052210491B
:101CE000FFF765FF0444402304F8013B7368601B61
:101CF0005A6842F400725A601A6842F480721A609C
:101D000002B0BDE8F08108220649FFF750FF4246C5
:101D10002C18CFE7001800209C6B0008DC06002080
:101D2000A56B00089D6B00082DE9F74F454B47F662
:101D300003171A7847F28313434C022A18BF1F4631
:101D400094F8103165680133DBB2012B84F810314F
:101D50000BD104206B6843F490536B602B6843F401
:101D6000A0632B6003B0BDE8F08F4FF6FF71374BD7
:101D7000B3F846308B4202D0002A08BF1F4600232A
:101D80000C22994647FA02F1B9F1000F03D101F094
:101D90000700072806D05B00080709F1010948BFC2
:101DA00043F00103043A111DECD143F02003E37426
:101DB00094F81231227B43F0300323750223003A5A
:101DC00018BF01226375224B4FF000081E464FF0EA
:101DD000280B227494F8112103F1FD0A42F040010E
:101DE000617449F01001A174C84518D194F8B33159
:101DF00008FB02622BB994F8B4310133DBB284F8EA
:101E0000B431022384F810316B68124843F4007334
:101E10006B602B68101A43F480732B60A2E74FEAC3
:101E2000880147FA01F101F0070118460BFB01A1F7
:101E30000192FFF77EFA0346019A08F10108134464
:101E4000D2E700BF3C00002000180020DC06002084
:101E500016180020101800202DE9F8433C490446CC
:101E60008B7A202B20D03B4B47F28312187847F611
:101E70000313022818BF13464FF6FF70364AB2F814
:101E80004220824204D033480078002808BF13461D
:101E9000002613F0080514BF022201221644A642B0
:101EA00005DCC3F30F13F4E747F21073E4E791F88E
:101EB000B52103F007039A4243DD282227484FF05B
:101EC0000C0902FB030300229C46DFF894E081F832
:101ED00090200A74A0F5817091F81181ACEB030297
:101EE000904500F1800711D8062202FB08F8C8F1DE
:101EF0007F0842460021FFF74FFA4246002138464C
:101F0000FFF74AFA15B3301BBDE8F8831CF8012B24
:101F10000630203A5F2A28BF0E2209FB02F202EBAC
:101F20000E0852F80E2040F8062CB8F8042020F8CD
:101F3000022CD8F80620C0F87A20B8F80A20BA8017
:101F4000CAE74FF4807200210648D9E72846DBE74C
:101F5000001800203C000020DC060020131900209F
:101F6000D46B00081018002010B5164B14211C6803
:101F700093F81031012B144B18D1A279013A01FBCF
:101F80000232D060A279013A01FB023340F283129F
:101F90009A60FFF7C7F8BDE810400C4B0C491B686E
:101FA000DB0801FB03010B48FFF72EB96279013A08
:101FB00001FB0232D0606279013A01FB023340F248
:101FC0009312E5E7001800200000024030000020D6
:101FD000400D0300B819002070B5054601200C46DD
:101FE000FFF790FD08B9002070BD064B44EA450498
:101FF0005E6802203461FFF785FD0028F3D00120E0
:10200000B369F1E70018002008B50A4B00215A68AF
:10201000136843F480731360FFF7DEFF08B90020F4
:1020200008BD0020FFF7AEFD0028F8D0FFF794FDB3
:102030000120F5E70018002038B50C4600211546B0
:10204000FFF7CAFF48B1254414F8010BFFF79AFDCA
:1020500018B1AC42F8D1012038BD0020FCE70000E7
:1020600030B5134B21F00F041B7B1A4353B22243AC
:10207000046843EA0111651C056022700468C9B256
:10208000651C056042F0040525700468651C056048
:10209000227003685A1C0260197003685A1C02609F
:1020A00041F004021A7003685A1C0260197030BDB6
:1020B000001800202DE9F341884C60684269D6077A
:1020C0000BD594F8101109BB94F8B3315B00DBB267
:1020D000012908BF43F001030361950741BF8369EC
:1020E000436823F400734360510740F1F380436871
:1020F00023F400734360002384F8103194F8B33163
:1021000033B9FFF729FDFFF70FFE66E01023DDE787
:1021100094F8C831E27A002B76D0617AA37A02294A
:1021200040D1B2EBD30F4FEAD30105D14B1CE37280
:1021300094F8C931002BE4D1E37A8B4207D900230C
:10214000E37294F8B4310133DBB284F8B431E77A46
:10215000634E7808FFF780FE06F1800507F0010264
:10216000C0B101280CBF8021002128460132314432
:10217000FFF72EFD5A48FFF7EFFCFFF781FD3318FC
:10218000802229461846FFF7D4F87A1CE272803084
:10219000801B22E0002AEDD1802231462846FFF73D
:1021A000C8F8E7E7B2EB131F4FEA131105D14B1C38
:1021B000E37294F8C931002BA3D1E57AA94211D278
:1021C0000023E37294F8B43145480133DBB284F85C
:1021D000B431FFF7C1FCFFF753FD02B0BDE8F04199
:1021E000FFF7C2BE2846FFF737FE40B101280CBFFB
:1021F000802100213A4803220144FFF7E9FC013520
:102200004FF48070E572E8E794F8B531344E9342AC
:10221000019606D15A1CE27294F8C921002A7FF473
:1022200070AFE27A9A4211D90023E37294F8B43184
:102230000133DBB284F8B431FFF78EFC436843F41A
:1022400000734360036843F48073036047F21073C4
:1022500042F203154FF6FF7194F8B521022A18BF18
:102260002B46204AB2F842208A4204D01E490978FF
:10227000002908BF1346257B94F80B8065B14FEA0F
:1022800088052B415A0757BF28220025174D03F018
:10229000070358BF02FB0355154B00224344997FA7
:1022A00001A841F08001FFF7DBFE002794F811310F
:1022B0009F4204D308F101030198E37268E73DB13E
:1022C00015F8011B012201A8FFF7CAFE0137EDE74F
:1022D0002021F7E702B0BDE8F08100BF0018002020
:1022E00010180020DC0600203C00002013190020FC
:1022F0008C6B000810B514240A490B480A685379FE
:10230000013B04FB030300249C6053790122013B41
:102310009B0002FA03F343604A68536843F4007376
:10232000536010BD001800200000024010B51424B6
:10233000104A114811688B79013B04FB0303002408
:102340009C608B790121013B9B0001FA03F3436000
:102350005368596821F480515960196821F48061EB
:102360001960D37C82F8CA31FFF7DEFCBDE810406B
:10237000FFF7FABD0018002000000240A022202133
:102380000148FFF709B800BF13190020F0B51A4C37
:1023900094F8115104F2131432EA220728BF2F4691
:1023A000282202FB01012144EFF31186721ED2B2F2
:1023B000CF2A02D9D02282F311885FFA86FCDC1979
:1023C000E21A13F8017B27B1A84200F101060CDBE9
:1023D000304620248B18401A5A1A002A02DD42186F
:1023E000954206DC8CF31188F0BD304601F8017B84
:1023F000E6E701F8014BEFE700180020002818BFBE
:102400000820014B1873704700180020064991F806
:10241000B421D2B291F8B4319B1ADBB2012B00D9AE
:10242000704700BFF6E700BF001800202DE9F04F0D
:10243000BC4C012694F8C93194F8B381DFF8E892D6
:1024400048EA0308002384F8CA312372E37284F84F
:102450001031B64BB64D1B7887B0022B0BBFB54B76
:10246000B54B636063600CBFB44BB54B284623602B
:102470002168D9F81C200B7806FA03F31343C9F836
:102480001C3016224978FEF729FE23681622997817
:102490002846FEF723FE0A20FEF742FD2168AB68BE
:1024A0004A78D340DF0726D5AB688A78D340D8076F
:1024B00021D44FF4803303FA02F22A614A780A20C9
:1024C00093402B61FEF72CFD23680A205B7806FA07
:1024D00003F32B61FEF724FD23680A209B7806FA9C
:1024E00003F32B61FEF71CFD2268AB685278D340E2
:1024F000D90748BFAB68B8F1000F00F083812368AB
:102500000E2259788A48FEF7E9FD23680E22997851
:102510008748FEF7E3FD00236668DFF828A23360F2
:10252000DAF800303E2B736003EB830228BF3E23B2
:102530000133F261336201233360B8F1000F00F020
:10254000D581D020012621687F4B0A791A4482F870
:1025500000030A79510902F01F0206FA02F2603103
:1025600043F8212022681279510902F01F0206FA6D
:1025700002F243F821202168CA781A4482F8000345
:10258000CA78510902F01F0206FA02F2603143F8DC
:102590002120142522686D4FD278510902F01F02C4
:1025A00006FA02F243F82120D4F804E0D4F800C07F
:1025B000DEF80420664942F48072CEF804209CF8CC
:1025C00005200EF1100E013A05FB021257619CF82E
:1025D0000520013A05FB0212C2F810E09CF8052024
:1025E000013A920006FA02F24A609CF805200A328B
:1025F0001A4482F800039CF805200A324FEA621C54
:1026000002F01F0206FA02F20CF1600C43F82C20D3
:10261000226852790A324FEA621C02F01F0206FA5F
:1026200002F243F82C20D4F800C09CF80620013AAE
:1026300005FB021257619CF806E062680EF1FF3E4E
:1026400005FB0E1510322A619CF80620013A920013
:1026500006FA02F24A609CF806200A321A4482F80E
:1026600000039CF806200A32511102F01F0206FAFC
:1026700002F2603143F82120226807F5D470927984
:102680000A32511102F01F0206FA02F243F8212029
:1026900000223049FEF7B2FDFEF744FD2E4B2F49D4
:1026A0001B68DB0801FB030107F5D470FEF7ACFDE6
:1026B00094F8C851002D00F01982DFF8A4806568F5
:1026C000B8F8253013F0800317D106212B60DAF813
:1026D000003003EB8302B2FBF1F242F400426B6084
:1026E000EA610A2203EB4303B3FBF2F333442B62A8
:1026F0002E606B6843F480736B6094F80990B9F1B5
:10270000000F40F090814E46164BDFF85CB09A8E79
:1027100093F83630ADF80C208DF80E30134B04933F
:1027200026E000BF0018002000100240D81B002047
:10273000000C01400054004000580040B26B0008FB
:10274000B96B00083400002000E100E01018002000
:1027500000000240E11A000830000020400D030094
:10276000DC0600208C6B0008612000088000C0009F
:102770002B6894F8B3A143F48073032250462B6076
:1027800003A9FFF759FC002800F0FB812B68012109
:1027900043F4A06350462B60FFF71EFC002800F0B6
:1027A000F0814020FFF7AEF9002800F0EA812B68A5
:1027B000402023F480632B602B6843F480732B60EC
:1027C0002B69FFF79FF9002800F0DB812B691BF8CC
:1027D000012BDBB25A408DF813205046042204A985
:1027E0000193FFF729FC002800F0CB811EB1019B6B
:1027F0004B4540F011810136032E00F00D819DF80C
:102800001390B5E7B34D2368082259782846FEF7A0
:1028100065FC2368082299782846FEF75FFC0A20A9
:10282000FEF77EFB2168AA684878AB68C240D207F1
:1028300004D58A78D340DB073FF561AE01252368D4
:10284000A54A1B79590903F01F0305FA03F3203148
:1028500042F82130BFF34F8FBFF36F8F2368DB78CF
:10286000590903F01F0305FA03F3203142F8213020
:10287000BFF34F8FBFF36F8F23685B790A33591112
:1028800003F01F0305FA03F3203142F82130BFF3B0
:102890004F8FBFF36F8F23689B790A33591103F071
:1028A0001F0305FA03F3203142F82130BFF34F8FA5
:1028B000BFF36F8F62688748136823F001031360CA
:1028C000236818225978FEF709FC236818229978A2
:1028D0008048FEF703FC2268D9F81C3012780020EB
:1028E000954023EA0505C9F81C50F0E04046FFF783
:1028F0008BFB1020FFF788FB202584F8C901237A81
:102900001BB1002384F8C93198E72846FFF77CFB08
:10291000D8B90135EDB2282DF1D13825237A002B15
:10292000EFD12846FFF770FB78B90135EDB2402DA5
:10293000F4D1257A002DE4D194F8C931002BE0D0F0
:10294000664BB3F825309F07DBD194F8C9316BB1E2
:102950003368012143F4807310203360FFF73CFBA0
:1029600020B14020FFF7CEF800B133695B4AB2F8DE
:10297000253013F0020131D0012184F8C81113F081
:10298000200F14BF40212021A172917E08293AD046
:10299000D90738D413F0080F14BF1223152384F875
:1029A0001131042384F8B5317DB384F8B35194F820
:1029B0001131102B38BF1023282B28BF282384F86F
:1029C000113194F8B531022B38BF0223042B28BFF4
:1029D000042384F8B531FFF7D1FCB2E5D80708D558
:1029E00084F8C811C3F3451184F81111C3F3C2234D
:1029F000D8E725F001013C290CBF0121002184F812
:102A0000C811BCD0EEE71023C9E792F8483084F82B
:102A1000C85184F81131CAE7FFF79EF8032E0CBFA6
:102A20000223012363720F222D492E48FFF7BFF8BE
:102A3000B8F825303E1813F0400F14BFA723A62383
:102A40008DF8103081238DF8113098F8343004A9B6
:102A50008DF81230A8238DF81330A37A30465A1E11
:102A6000402B8DF814204FF0DA020CBF1223022302
:102A70008DF8152007228DF81630FFF798F8B8F872
:102A80002520194B12F0040F03F1020108BF0B4679
:102A90001B88D20506EB0004ADF810304FF002029F
:102AA00048BF83F00103204604A948BF8DF81030C9
:102AB000FFF77DF804442046FFF7E2F86B682044F6
:102AC00043F400636B60C01BFFF74EFA012007B0B0
:102AD000BDE8F08F000C014000E100E0DC060020C2
:102AE000C36B000810180020AE6B000894F8B30107
:102AF000636830B95A6842F400625A60FFF714F90B
:102B0000E2E71A68294642F480721A60FFF764FA15
:102B100098B33020FFF73EF841F20400FEF700FAC8
:102B20003020FFF737F86420FEF7FAF93020FFF77E
:102B300031F82020FFF72EF804A82A462821049710
:102B4000FFF78EFA2A460821FFF78AFA2A4606215D
:102B5000FFF786FA2A460C21FFF782FA626853686B
:102B600043F4006353600498C01BFFF7FDF9B8F10C
:102B7000000FABD108232373A8E7B8F1000FA6D14B
:102B80005CE6012023680549DB785A0903F01F033E
:102B900000FA03F3403241F8223098E700E100E008
:102BA00070B517480024436814265A695A690568A5
:102BB00022F45F425A614FF400421C601A60AA7905
:102BC0001049013A06FB021294606B7900F5DC7043
:102BD000013B06FB03139C6001246B79AA79013B3E
:102BE000013A9B00920004FA02F204FA03F3134341
:102BF0004B60FEF743FBBDE87040FFF717BC00BF1A
:102C000000180020000002402DE9F04104464FF07A
:102C10001008144F144D4FF480333A78022093403B
:102C20002B61FEF77DF914F4004F14BF01234FF41C
:102C3000803301267A78022093402B61FEF770F9E9
:102C40003B78042006FA03F32B61FEF769F9B440E0
:102C5000B8F10108A4B2DED17B789E402E61BDE8B8
:102C6000F08100BF3D000020000C01400146182209
:102C70000148FEF733BA00BF000C014010B50B4C01
:102C8000062221780A48FEF729FA0420FEF748F9BF
:102C90002078FFF7EBFF0220FEF742F96078FFF79C
:102CA000E5FFBDE810400220FEF73AB93D000020E4
:102CB000000C0140F8B50025184E194F40F48074FF
:102CC000317806223846FEF709FA0220FEF728F985
:102CD000E30771781DD50846FFF7C8FF0120FEF70E
:102CE0001FF9012C08D1BD6871780622CD400C482F
:102CF00005F00105FEF7F2F90120FEF711F9307831
:102D0000FFF7B4FF0420FEF70BF96408D8D128467A
:102D1000F8BD06223846FEF7E1F9DFE73D00002066
:102D2000000C014038B50D4C0D4D21780622284687
:102D3000FEF7D4F90420FEF7F3F82078FFF796FFAA
:102D40000220FEF7EDF8284661780622FEF7C6F964
:102D5000BDE838400220FEF7E3B800BF3D00002088
:102D6000000C014070B506460325FFF7DBFF304637
:102D7000FFF7A0FF0446FFF781FF0CB1013DF4D13E
:102D8000204670BD014B1878704700BFCC19002059
:102D9000064B1A78032A05D1002814BF8920802009
:102DA000FFF7E0BF00B15888FFF72EBFCC19002015
:102DB00070B5174B04461D78032D21D1FFF7B2FFE4
:102DC000C020FFF777FF30B10126FFF757FF0EB1A4
:102DD000013DF3D170BD2078FFF76CFF0028F3D1DF
:102DE0006078FFF767FF0028EED1A078FFF762FF59
:102DF0000028E9D1FFF75EFF061E18BF0126E4E7B1
:102E0000008840BA5880BDE8704080B2FFF7FCBE31
:102E1000CC190020F7B5002540261949441E0B881F
:102E20008DF80650ADF8043001AA033014F8013FC4
:102E30000BB1844204D101A8FFF7BAFF03B0F0BD83
:102E4000A3F13007092F05D80B4413F82D3C13705C
:102E50000132EBE7A3F16107192F03D80B4413F8F4
:102E6000543CF4E7A3F14107192F03D80B4413F89E
:102E7000343CECE72D2B0CBF16701570E8E700BF53
:102E80004870000810B5164B164C1B78022B02BF79
:102E9000062363700723607808BF2370FFF7E6FE00
:102EA0002078FFF7E3FE4020FFF75CFF0E4B48B9A8
:102EB00003221A700D48FFF7ADFFBDE81040012056
:102EC000FFF766BF022261781A7009481222FEF7E6
:102ED00005F9122221780648FEF700F9EAE700BF5B
:102EE000D81B00203D000020CC1900207D75000873
:102EF000000C01400068704703460068596870473D
:102F0000034610B5024413F8010B11F8014B93422C
:102F1000A0EB040001D00028F5D010BD03690239F0
:102F2000023B8B4283BF4389806A01FB0300002080
:102F30007047000003685A1C02601878A0F1610312
:102F4000192B01D8203870477F2882BF024BC01848
:102F500010F8800C704700BF707000087FB5044601
:102F600001911D46114629B923785BB955B101205D
:102F700004B070BD01A8FFF7DDFF01390028F2D1D0
:102F80000020F5E7019B02940393029B1B783F2BE3
:102F900001D02A2B1DD100231A460299481C029009
:102FA0000E7849783F2E14BF012301323F29F4D017
:102FB0002A29F2D00399FFF7D1FF0028D7D1039B2C
:102FC000197801A8FFF7B6FF002DD9D00029D9D173
:102FD000D6E702A8FFF7AEFF064603A8FFF7AAFF51
:102FE00086420146EDD1002ECFD1C0E702684AB13A
:102FF000134613F8011B1F290BD93A29F9D1911C4B
:103000008B4202D04FF0FF3070471278302AF9D14E
:1030100003600020704738B50D46044618B90920F2
:1030200000232B6038BD0368002BF8D01A78002AE3
:10303000F5D08188DA889142F1D15878FEF702FA0A
:1030400010F00100EBD12368EBE738B5C36A054601
:103050008B420C4611D001230A4600F13001407822
:10306000FEF71AFA002818BF4FF0FF3403460CBFD2
:1030700003460123EC62184638BD0023FBE700003D
:1030800038B50023C3704FF0FF33C3620446FFF727
:10309000DCFFA0BB94F83030B4F82E52EB2B03D0F9
:1030A0001833DBB2012B23D84AF655239D4206D1B3
:1030B0000822144904F18200FFF722FFF0B1B4F8AE
:1030C0003B305A1E1A4213D1B3F5007F10D194F849
:1030D0003D0068B1431E18400AD194F84030013BCE
:1030E000012B05D8B4F8413013B1B4F846302BB9F0
:1030F0004AF6552085420CBF0220032038BD04202B
:10310000FCE700BF7575000800232DE9F04F0B6048
:1031100087B00D46FFF76AFF071EC0F25681B04E1A
:1031200056F82740002C00F052812C60237853B9C8
:103130000023F8B223706070FEF78AF910F00105E1
:103140000BD0032505E06078FEF77CF910F001054F
:10315000EED1284607B0BDE8F08F29462046FFF79C
:103160008FFF022840F01A8194F8F231EE2B40F0E4
:10317000F28001212046FFF768FF002840F00A8115
:1031800004F13009102248469649FFF7B9FE00289D
:1031900044D16FF00F024FF0FF33DFF84CE204F13F
:1031A0004008032A98BF00204FF008074FF00101A4
:1031B00088BF18F8020000EA010ABAF1000F0CBF3C
:1031C0009C4683F0010C1CF0010F4FEA5C0318BF12
:1031D00083EA0E034900013FC9B2ECD101324C2A07
:1031E000DFD104F14000FFF785FEDB43834215D1B8
:1031F00004F18400FFF77EFE80280FD104F18000E7
:10320000FFF778FE8028804608D804F17800FFF7A1
:1032100073FE8246DFF8D4B1474501D10D2598E70A
:10322000C7F39601FB01204651440193FFF70DFFC0
:10323000002840F0AF80019B102203F4C07309EB1B
:10324000030059460193FFF75BFE019B08B101376C
:10325000E2E703F120004844FFF74EFE0146204616
:10326000FFF70EFF0128F2D8B4F83B30B3F5007F2A
:10327000D4D1B4F8462022B904F15400FFF73AFE45
:10328000024694F84030D4F82C90591E012962610E
:10329000A370C3D894F83D706781002FBED0791E0B
:1032A0003942BBD1B4F8418018F00F0FA4F8088060
:1032B000B4D1B4F8430018B904F15000FFF71AFE76
:1032C000E18F0029AAD002FB03FE01EB181CF44495
:1032D0008445A3D8A0EB0C0ABA45BAFBF7F39DD3FB
:1032E000434FBB429AD84FF6F577BB4271D90327BB
:1032F00009F1FF3A50440233E061494409EB0C0004
:10330000032F2361C4F818902162A0624CD1B4F855
:103310005A1051EA080181D104F15C00FFF7EAFD7F
:103320009B00606203F2FF13B2EB532F0AD2012F0E
:103330003FF474AF032F0CBF042002205202B2FBF3
:10334000F0F22261B388277001339BB2B380E3802F
:10335000284BE360FDE60DF10808424604F5FB73D7
:1033600004F236211846FFF7C5FD10338B4242F8B0
:10337000040BF7D1002758F8041B69B12046FFF76A
:103380007FFE01287FF670AF0137042FF3D10428A8
:103390007FF444AF0125DCE60320F5E70428F9D0EB
:1033A00001287FF661AF39E7B8F1000F3FF436AF7F
:1033B0007144022F61624FEA43011BBFC91803F039
:1033C00001030B4603EB5103ACE70B25C1E60C25CB
:1033D000BFE640F6F577BB428CBF0227012787E79F
:1033E000D0190020F07000082083B8ED00710008AB
:1033F000F5FFFF0FD619002003284B8B04BF8A8AE4
:1034000043EA0243184670470129F8B506460C46C0
:103410004ED9036999424BD20378022B29D0032B52
:1034200034D0012B44D101EB5105016A01EB552148
:10343000FFF70BFE10B14FF0FF30F8BD316A6F1C83
:10344000C5F308053544304601EB572195F8305057
:10345000FFF7FBFD0028EED1C7F308073E4496F8BE
:103460003000E30745EA00204CBF0009C0F30B0021
:10347000E3E7016A01EB1421FFF7E7FD0028DAD149
:10348000640004F4FF742644308ED6E7016A01EB31
:10349000D411FFF7DAFD0028CDD1A40006F13000E9
:1034A00004F4FE742044FFF725FD20F07040C4E7CB
:1034B0000120C2E738B5002382680446056803612D
:1034C0009AB92B78022B01D96B6A6BB92B890BB98E
:1034D000022038BD6B6AA361A3696261002BF7D03B
:1034E00030350020E561F4E71A466B8963B911466F
:1034F0002068FFF789FF431C02460BD00128E7D95B
:103500002B699842F3D3E3E711462846FFF706FDFF
:10351000A061E1E70120DCE7F8B506690446203642
:10352000B6F5001F24BF002383618369056863B17A
:10353000C6F3080707BB41690133836139B92B8999
:10354000B3EB561F18D80023A361042019E06B8940
:10355000013B13EA56230FD12846FFF755FF0128F8
:1035600001460FD9431C0FD02B699842EBD2606102
:103570002846FFF7D3FCA061002030353D4426618A
:10358000E561F8BD0220FCE70120FAE72DE9F04FE4
:103590000446036889B00193884611F8013B2F2B3C
:1035A000FAD05C2BF8D00023A36098F800301F2BD2
:1035B00000F298818023204684F82B3009B0BDE8C2
:1035C000F04FFFF777BFFF2E00F0AE812BF816000B
:1035D00001368BE14246137890462F2B02F101020F
:1035E000F9D05C2BF7D00025ABF10202BEBB002363
:1035F0002BF81630002E00F097813BF813101A4676
:10360000202903F10103F8D00AB92E2901D145F090
:103610000305ABF1020131F816302E2B01D0013E2B
:10362000F9D14FF0000904F1200304934FF0203347
:103630004FF0080A4F4663622362C4F827303BF814
:103640001200531C10B3202803D02E280FD1B342F0
:1036500011D045F003051A46F1E70425C4E732F816
:103660001630202B01D02E2BC1D1013EBEE7D14513
:1036700005D2B34263D1BAF10B0F58D102E0BAF1CF
:103680000B0F4FD14FF00B0A45F0030594F8203093
:10369000E52B04BF052384F82030BAF1080F04BFDE
:1036A000BF00FFB207F00C030C2B03D007F003039D
:1036B000032B01D145F00205AB0707D4FE0748BF35
:1036C00045F01005780748BF45F0080523682046F7
:1036D00084F82B500293FFF7EDFE0746002840F0D8
:1036E000E0804FF0FF094FF0FF3B4D46C4F82CB08F
:1036F000A1690298FFF7A9FC0746002840F0D18095
:10370000E6693378002B00F0D980F17AE52B01F0DF
:103710003F02A27103D009074ED50F2A4ED0C4F83C
:103720002CB099E0B34202D045F00305AED8BF00FB
:1037300033464FF00B0A4FF00809FFB28BE77F28A2
:1037400012D945F0020240F2B5110393029200F043
:103750000BFCDDE9022310F0800F11D07C4900F052
:103760007F00085C154638B17A4911F8012B002A10
:1037700000F0DE808242F8D15F2045F0030511E0C1
:10378000FF28EFD90AF1FF31894503D3D14645F02F
:10379000030560E704EB0901050A81F8205015468E
:1037A00009F1010904EB090282F8200009F101097D
:1037B00051E747F00207F5E70F2A54D194F82B2080
:1037C00057063FD4580645D503F0BF05236996F840
:1037D0000D90E362737B4B453ED1738B002B3BD145
:1037E000029B0122DB68377803930D2307F03F0724
:1037F000013F5F43DFF860A11AF8013BF35A6AB357
:10380000FF2F29D81846079300F0E2FB039B069090
:10381000791C33F81700059100F0DAFB069A824212
:103820001AD1079B05991A460F464C4B9A45E3D18E
:103830003378590604D51AB1039B33F817305BB9B6
:10384000013DEDB22046FFF767FE074600283FF432
:103850004FAF26E0AB42BDD0FF25F3E74FF6FF7137
:103860008B42E2D0F8E775B9314606F10B02EB0165
:1038700043EA550511F8013B1D448A4205F0FF0556
:10388000F5D1A9451CD094F82B7017F001077FF4EF
:1038900046AF0B2230460499FFF732FB00287FF435
:1038A0003EAF94F82B306FB1042F03D113F0040F07
:1038B00008BF0527384609B0BDE8F08F0427F0E7B8
:1038C0000027EEE75A07F5D4A379DB062ED5019B36
:1038D00021693033C1F308011944019B1878FFF7BF
:1038E0008BFDA06000262368D3F80CB018F8010BFC
:1038F00000283FF4B2AE40F2B51100F055FB98B18C
:103900001F287FF6AAAE2F283FF464AE5C283FF450
:1039100061AE7F283FF657AE114A12F8013B002BEB
:103920003FF451AE9842F8D10627C3E70527C1E717
:10393000A0F1410292B2192A7FF63BAFA0F16102D9
:1039400092B2192A9EBF203847F0010780B229E7BA
:103950007070000887750008107100081D7100085C
:103960007E7500081FB5CDE9001003A81446039129
:10397000FFF73CFB002815DB0B4B53F820200AB166
:1039800000211170019A0AB100211170019A43F8C7
:10399000202024B1684601A9FFF7B6FB0446204663
:1039A00004B010BD0B24FAE7D0190020F0B591B097
:1039B00016460546019100283AD0002302A901A825
:1039C0008DF81230FFF7A0FB044620BB029B019943
:1039D00003A80393FFF7DAFD0446E0B99DF93730F9
:1039E000002B21DB9DF8124014F010041ED1029F21
:1039F0000A993878FFF700FDA86001F11C00FFF775
:103A000079FA2F60E860FB8806F00106AB802E741F
:103A10006C74EC616C619DF81230AB710CB10023D9
:103A20002B60204611B0F0BD0624F4E70424F2E731
:103A30000924F6E72DE9F04F9946002387B0884620
:103A4000C9F8003005A904461646FFF7E4FA054612
:103A500008BB657CFDB9237C13F00103029377D08A
:103A6000E768626904F12003BF1AB74228BF3746EE
:103A7000019387B16269C2F30803002B54D1059BFF
:103A80005B89013B13EA522B15D142B9A06801288A
:103A90000AD802256574284607B0BDE8F08FA169F1
:103AA0002068FFF7B1FCF2E7431C03D10123029D1C
:103AB0006374F0E7A061DDF814A0A1695046FFF738
:103AC0002DFA0028E5D0B7F5007F0BEB00021DD3DF
:103AD000BAF80A100BEB572088424FEA572688BFE6
:103AE000A1EB0B06334641469AF80100FDF7D4FCE2
:103AF0000028DBD17602D9F80030BF1B3344C9F867
:103B000000306369B0441E446661B2E7E3699342E2
:103B100009D0012301999AF801000392FDF7BCFC3A
:103B2000039A0028C2D1E2616369019AC3F30803D2
:103B3000C3F50076BE4228BF3E461344991908F1EA
:103B4000FF3213F8010B8B4202F8010FF9D1D2E7D3
:103B50000725A0E7F7B50E4601A90446FFF75BFA73
:103B6000054640B9657C35B9E2686369964228BF6D
:103B70001646656116B9284603B0F0BD019A57890B
:103B80007F0213B3013B721EB2FBF7F2B3FBF7F1F6
:103B90008A421AD37A421340A1696361F61A69BB5B
:103BA00000266369C3F30803002BE4D0E369B34242
:103BB000E1D0019801233246407804F12001FDF75D
:103BC0006BFC054670B9E661D5E7A168A161E6E73F
:103BD0003B4463612068FFF717FC431C0146A6EBDA
:103BE000070602D101256574C5E7012803D9019BA9
:103BF0001B69834201D80225F5E7A061BE426369D3
:103C0000E6D833446361C6F30803002BC8D001989B
:103C1000FFF784F90028EED000EB5626C1E71FB568
:103C20000446019140B303A901A8FFF76DFA70B9EA
:103C3000039B204601992360FFF7A8FCF0B994F993
:103C40002B30002B0CDBA379DB0603D405200023EB
:103C500023600FE0039BE1691878FFF7CDFBA060BC
:103C6000039B2046DB88A380FFF724FC0428EDD0CB
:103C70000028ECD104B010BD0920FBE70428E5D0F2
:103C8000E5E713B501A90446FFF7C5F900B92060BF
:103C900002B010BD2DE9F74F0D4601A90446FFF70C
:103CA000BAF9074620B93DB92046FFF703FC07469D
:103CB000384603B0BDE8F08F4FF0FF0A04205646A7
:103CC0004FF6FF79D4F80080A16911B9002874D0AB
:103CD00055E04046FFF7B9F9002850D1E3691A785A
:103CE000002A00F0B480D97AE52A01F03F01A171E1
:103CF0004CD02E2A4AD021F02000082846D00F2987
:103D000049D1510640D502F0BF06226993F80DA0B3
:103D1000E2625A7B524539D1598B002936D14FF096
:103D20000D0C1A78D8F80C0022F04002013A0CFB76
:103D300002F24FF0010CDFF8DCE11EF801BB33F8B2
:103D40000BB0BCF1000F23D0FF2A1FD8DC4620F8AF
:103D500012B0013201310D29EFD11B785B0607D576
:103D6000BCF1000F04D0FF2A10D8002320F8123035
:103D7000013EF6B22046FFF7CFFB0028A4D0002377
:103D80000428A36193D118E0B242C2D0FF26F1E724
:103D9000CB45DFD0FAE76EB903F10B01F20142EA3D
:103DA000560613F8012B16448B4206F0FF06F5D198
:103DB000B24502D04FF0FF33E3624FF00008D4F871
:103DC00000B085F81E80A369002B00F09880DBF816
:103DD0002C30AB60E369EB60E36A013370D1002300
:103DE0002E261A46E069815C013220290CD0052973
:103DF00008BFE521092A04D10B2B9EBFE8184674A1
:103E00000133E818417401330B2AEBD10021EA1881
:103E10005174AA7F002A64D1002B58D06FF010068D
:103E2000082005F11101761B731811F8012B002AE7
:103E300050D02E2A93B269D0A3F14102192A04D896
:103E4000E269127B104200D020330B73ECE70420B0
:103E500095E7BAF1000F05D100F520539BB2B3F5F9
:103E6000006F13D340F2B51140EA0A4000F07CF82D
:103E7000FF28C9F1FF061BD9012E24D905EB090340
:103E8000020A9A77D877022300209944824608F1E3
:103E90000208DBF80C3033F808000028D9D14E4670
:103EA000BAF1000F18BF002600232E44B37796E71F
:103EB00058B1002EF4D005EB090398770123E3E70E
:103EC000C246C146E5E70026EAE70646E8E73F23A3
:103ED000AB77012300222B449A77E3691B7B03B95C
:103EE0006B74E369DB7A2B74E0691C30FFF702F82E
:103EF0002860E369DB8AEB80E3691B8BAB8020469B
:103F0000FFF70AFB042818BF0746D1E61020134626
:103F10009BE700BF10710008F8B506460D4601F199
:103F20001E0729463046FFF7B5FE044650B94DB18D
:103F3000AB7F3BB1034602463946306BFFF70EF8C4
:103F40000028EED02046F8BD38B50D460363114673
:103F50000446FFF764FE28B929462046BDE83840EC
:103F6000FFF7DABF38BD00007F2810B501D880B256
:103F700010BDB0F5803F13D240F2B51399420FD176
:103F80000022084931F8024B93B2844203D103F175
:103F90008000C0B2ECE70132802AF3D11346F6E785
:103FA0000020E5E71E7100087F280DD940F2B51307
:103FB000994208D1FF2806D8044B00F10040803810
:103FC00033F8100070470020704700BF1E710008D2
:103FD000B0F5803FF0B522D21F4A83B202F5F971E5
:103FE000B0F5805F28BF0A46141D34F8042C214622
:103FF000A2B1934212D334F8025C2E0AEDB2AF188C
:10400000B84222DA082E09D8DFE806F0050A1012B5
:104010001416181A1C00801A34F810301846F0BD17
:10402000981A00F001001B1A9BB2F7E7103BFBE760
:10403000203BF9E7303BF7E71A3BF5E70833F3E7B6
:10404000503BF1E7A3F5E353EEE70434002ECCD167
:1040500001EB4502C8E700BF1E72000870B50646B6
:104060000C460025E30704D5182229463046FDF703
:1040700035F80135102D4FEA5404F3D170BD00001E
:10408000104B114A1B7811780F2B09BF0F4B4FF0C3
:10409000FF309868C00829B90D4B9B6893FAA3F3C9
:1040A00000EAD350C043022900F0070008D053783B
:1040B00033B1084B9B686FEA131303F004031843F2
:1040C000704700BFF8170020D81B002000080140EF
:1040D00000100140001C014038B508220B2149485E
:1040E000494DFCF7FBFF08220C214648FCF7F6FF80
:1040F0004FF6FF712846FFF7B1FF6420FCF710FF71
:10410000424AAB681278C3F307314148C3F3033323
:1041100022B3404A1268C2F30B02B2F5E37F03D028
:1041200040F24224A24217D102223B4B1A700F23C5
:104130000F22394C02702278022A2CD1012340F23E
:1041400013256370637823B1182206213348FCF7E6
:10415000C5FF41F607110EE08C07E9D411F00E0FF0
:1041600003704CD1042102222648FCF7B7FF40F22D
:10417000112549F61F1181F47F41224881F0FF018A
:10418000FFF76CFF85F47F41254881F0FF01BDE812
:104190003840FFF763BFD90758BF01234FF008022B
:1041A0004FF00F01184858BF2370FCF797FF6420A9
:1041B000FCF7B6FEAB681A0404D5022341F21125C0
:1041C0006370BFE7174A154D9369072143F08003D9
:1041D000936128460822FCF781FF6420FCF7A0FECB
:1041E000AB6804221B0658BF01234FF007010B48A0
:1041F00058BF637040F21125FCF770FFA2E740F250
:104200001125A6E7000801400010014035070020F5
:10421000F8170020002004E0D81B0020001C0140FB
:10422000000C014000100240024A536943F48053DD
:104230005361704700100240E022034B83F8432390
:1042400008229A60704700BF00E100E070477047A5
:10425000FCF766BEFCF76CBE4FF0E0239B69036081
:10426000044B1B68DB084B434FF47A714B434360AC
:10427000704700BF300000204FF0E023002210B54F
:104280009C69036841681B1B23F07F43994285BFEB
:10429000CB1AC0E900434260104698BF012010BD10
:1042A000014800F0D1BC00BFF81B0020704700009F
:1042B0000022014B1A707047A81F002070477047FA
:1042C00070470120704700000122024B00201A7045
:1042D000704700BFA81F002010B9024B1878704724
:1042E000012070474000002040B9064B1B78DB07D7
:1042F00006D4002918BF0421084670470421FBE7B3
:104300000321F9E74000002008B5054B187828B1D3
:10431000044800F07CFC003818BF012008BD00BF35
:10432000A81F0020F81B002008B5FFF7EDFF20B103
:10433000024B187B003818BF012008BDFC2000206C
:1043400010B5074CD4F894305B6C98470C23054AA1
:1043500023711378012043F00103137010BD00BFD7
:10436000A81F00204000002008B560B9FFF7CCFF6F
:1043700038B1064B187B002818BF0420044B187076
:1043800008BD0120FAE70420FAE700BFFC20002066
:10439000400000202DE9F0470F46904630BB2BB37C
:1043A000154A1278D10723D4520723D4DFF84C9052
:1043B000DFF84CA05E02484600F029FC18B9BDE8C1
:1043C000F047FFF7BDBF334642463946484601F045
:1043D000DBFF054604465146484601F04FFC032DDD
:1043E000E9D0002DEBD12046BDE8F0870424FAE7A0
:1043F0000324F8E70224F6E740000020F81B002021
:10440000AC1F002070477047704770477047704777
:1044100070477047704700000022014B1A707047C8
:10442000A81F00200022014B1A707047A81F00200F
:104430002DE9F0470F46904620BB1BB3134A127874
:10444000D20721D4DFF84890DFF848A05E02484642
:1044500000F0DDFB18B9BDE8F047FFF771BF334648
:1044600042463946484601F0D9FF044605465146C2
:10447000484601F003FC032CE9D0002CEBD1284680
:10448000BDE8F0870425FAE70325F8E7400000209F
:10449000F81B0020AC1F002007B5054B012100933D
:1044A000044A054B054800F0ADFF03B05DF804FB7E
:1044B00044000020AC1F0020C0000020F81B00209A
:1044C000014B1860704700BF40200020014902489E
:1044D00001F08CB8AC1F0020F81B002008B506487E
:1044E00000F095FB28B9054B1879003818BF01205A
:1044F00008BD0120FCE700BFF81B0020A81F00201A
:10450000002337B50446124D01930320FFF7A0FEA8
:10451000E268013D1369019317D0019B002BF4DA87
:10452000019B43F001030193019B1361E168084B78
:104530000A69013B019202D0019AD207F8D4032004
:1045400003B0BDE83040FFF783BE03B030BD00BF0D
:10455000410D030010B51C46C3783BB900EB820047
:104560000334D0F8D020A4109C4201D1002010BD0B
:1045700051F8230001331060F6E7002310B5033231
:10458000D0F8D0009210934202D101EB830010BD0D
:10459000046841F823400133F5E7012370B54380F7
:1045A00040230129838032D14FF4816303804FF48B
:1045B000A073C380022303724FF0A043C172002195
:1045C00003F5006245780261C36003F5106200F1F3
:1045D00018048D421DD803F58062426103F588629C
:1045E000C0F8CC200246002112F8905B03F5A064CD
:1045F0008D4216D8002203F5805100F1D004954277
:1046000014D803F56063C0F80C31002070BD00239E
:10461000D5E744F8042B02F50076A6630131203279
:10462000D7E742F8044B01312034E1E744F8041B9A
:10463000013201F58051E2E738B5037A0446012BD7
:104640004FF00005C26827D1956B417A6FF3104592
:1046500009B9C5F3005363F314559563E268204626
:10466000D36823F4940323F04003D360FFF748FF9B
:10467000E378012B0ED12A22E3689A60E378012BBC
:1046800008D1E1688B6823F03E0242F02A0262F30F
:1046900007038B60002038BDD36843F04003D3602C
:1046A000FFF72EFF637A1420003B18BF01231B0184
:1046B00043F02D0363F31745E3689D63FFF7CAFDDD
:1046C000DCE7C2680020936843F001039360704701
:1046D000C2680020936823F00103936070470000D4
:1046E000002307B50193019B43F020030193019B35
:1046F00061F38A130193C368019A1A61C168074B79
:104700000A69013B019202D0019A9206F8D4032073
:10471000FFF79EFD002003B05DF804FB410D030090
:10472000002307B50193019B43F010030193C36875
:10473000019A1A61C168074B0A69013B019202D0D4
:10474000019AD206F8D40320FFF782FD002003B0BF
:104750005DF804FB410D030008B5C0680129C3687A
:10476000C3F3076222F0600262F31F6307D143F0D4
:104770000053C3603220FFF76DFD002008BD002903
:10478000F7D143F08043F4E7C368586900F00100B3
:104790007047C36858699B691840704743699868B7
:1047A000C04300F0010070470246002010B5D368F6
:1047B00098614FF0FF33D1684B61D1684B606FF067
:1047C0008041D3685961D3680A499961D378D16827
:1047D000B3FA83F35B098C691B0143F048732343ED
:1047E0008B61D268936923F0005323F0080393612F
:1047F00010BD00BF000800804269136861F3010327
:1048000013607047D0F8CC30186820F02E0363F3A3
:104810000700704738B504460D46FFF717FD2046E0
:10482000FFF7F0FFC20408D4012D02BFD4F8CC304A
:1048300040F480501860C30405D525B9D4F8CC30B5
:1048400065F30C30186038BD43695869704738B556
:104850000546FFF7D7FFD5F8CC3040F480741C60D4
:104860006420FFF7F7FCD5F8CC306FF30824142050
:104870001C60FFF7EFFC012038BD38B50446FFF798
:10488000E6FC0021D4F80C3120461960237A012B74
:1048900018BF0121FFF7B0FFFFF7D9FF6269136866
:1048A0006FF382031360E37A012B0AD18022E3685D
:1048B0005A62E36802F5C0029A62E3686032C3F8A4
:1048C000002110212046FFF70BFF2046FFF728FFAD
:1048D00000234FF0FF301D4604F1900221789942E9
:1048E00008D801212046FFF795FF2046FFF75CFF1F
:1048F000002038BD11680133886052F8041BCD6078
:10490000ECE770B54FF0FF35002300EB8104D4F8DD
:1049100090209560C27802F1FF3CDCF1000242EB8E
:104920000C0262F382034A1D00EB421595F8155103
:10493000032D11D8DFE805F00264025743F49365B4
:1049400045F0010565F30F0300EB421595F8126180
:10495000002E3FD043F48073D4F89050EB600123D5
:10496000456903FA01F1AE693143A961C16800EB01
:1049700042108B6943F000738B6190F8113190F80D
:10498000152103F00F01B0F81631D61EC3F30A0348
:1049900043EAC12390F8121101F0010143EAC13347
:1049A00090F813118D1E6942694143EA414302F0B8
:1049B000030143EA814390F81011724201F07F0134
:1049C000724143EA815343EA4273D4F890200020B5
:1049D000136070BD95F8145143F04003002DBBD017
:1049E00043F02003B8E743F4D36545F0010565F3D0
:1049F0000F0300EB421595F81251002DAAD1ABE739
:104A000043F4087545F0010565F30F0300EB42150B
:104A100095F81251002D9FD043F4C07565F30F0334
:104A20009AE70A462DE9F0414D0100EB4111D1F81A
:104A3000C0310446561D002B5BD000EB4610B0F889
:104A40001601013B0344B3FBF0F39BB2B3F5807F47
:104A500004D94FF480730002C1F8C00104EB461082
:104A600090F8127127B1B0F816015843C1F8C0018F
:104A7000D1F8C0016719C0F3120040EAC34397F8A8
:104A8000B80104EB820800F0030043EA4073D8F851
:104A9000900023F000430361E378012B02BFD7F8B5
:104AA000BC01D8F890305861D8F8903020461F6883
:104AB000FFF774FE430103F02003C7F3046063F0C3
:104AC0007F03034363F31F67D8F890301F60E378D8
:104AD0002BBB04EB461696F8123103BBD1F8C0315C
:104AE000EBB196F81501032811D8DFE800F0041B9C
:104AF000041B0123B2E7E0680333C66AC3F38F03E4
:104B0000B6B29E4203D2836943F0200383612544F9
:104B1000B1F8C0312046D5F8BC11FFF71BFD0020CD
:104B2000BDE8F081606903330069C3F38F0380B28D
:104B30009842ECD2E068836943F08063E6E710B501
:104B400000EB8101D1F8902013681C46640355BF27
:104B5000C0684069C06A006943F0804310F47F0F69
:104B6000C0F3074404BF64F3DF731360D1F89020EF
:104B700043F000431360002010BD000000EB8101F2
:104B8000D1F89030064A00201A61D1F890100B68D5
:104B9000C3F3056262F07F0262F31F630B6070472C
:104BA00000000880002310B51A460446C0F81031F2
:104BB00004EB8300C0F81821C0F85421E018013339
:104BC0000F2B80F89021F3D108232046A4F8B631AA
:104BD000FFF7E3FC2046FFF77BFD2046FFF72CFDA7
:104BE00001212046FFF7B8FD2046FFF746FE20468C
:104BF000FFF767FD002010BDD0F8CC301868C0F377
:104C00004140704708B5FFF722FE002008BDD0F8EC
:104C100010017047D0F814017047084490F89F01C4
:104C20007047543100EB8100406870470A4638B540
:104C300000240E32451800EB421385F89F415C605A
:104C4000FFF7EFFE38BD00002DE9F04F8BB00446B2
:104C5000FFF79AFD28B94FF0000840460BB0BDE8B9
:104C6000F08F2046FFF795FD01900028F3D010F05B
:104C700008089DF8046009D0AB4B20461B684FF034
:104C800001081B6898470822E3685A61F2066BD551
:104C90000023E2688DF81B30936923F010039361C1
:104CA000E3681A6AC2F303038DF81B309DF81B30CA
:104CB00002F00F0704EB8303D3F890301D68C2F3B2
:104CC0004343022BA84648D147F6F073134244D021
:104CD0009DF81B3004EB4313D3F8BC31EBB39DF8C4
:104CE0001B30C2F30A1904EB43134A46D3F8BC1134
:104CF0002046FFF742FC04EB4713D3F8BC214A449B
:104D0000C3F8BC21D3F8C4214A44C3F8C4219DF898
:104D10001B3004EB4313D3F8C4219DF81B305433EC
:104D200004EB83035A609DF81B3004EB8303D3F834
:104D300090301A6941F6F87313EA12430DD09DF8CA
:104D40001B30C5F3056504EB8303D3F8903065F0A1
:104D50007F0565F31F68C3F800804FF00108E26823
:104D6000936943F010039361B30612D5E368D4F856
:104D7000C061DB6A03360793C6F38F06BDF81C508B
:104D8000B54204D9D4F8C031002B40F0A4804FF0D4
:104D90000108019B1B0E0293019B5F0112D5636901
:104DA000D4F8C0611B6903360793C6F38F06BDF8BC
:104DB0001C50B54204D9D4F8C031002B40F0B68065
:104DC0004FF00108029B9E070FD52046FFF73CFDE0
:104DD0000023A2461E4682B204F190090392227873
:104DE0009642C0F0CC8048EA0308029BD8074FD512
:104DF000D4F8CC301D68D3F800A015F002072AF0D3
:104E00002E0363F3070AEEB207D0474B20461B6818
:104E100001275B6898474AF0020A31072BD516F044
:104E2000040FDFF804914AF0080A00F0AB82C5F3E2
:104E3000074505F00605042D01D0022D11D1626948
:104E4000042D13680DD141F2707103F00303022B9E
:104E5000516006D0217A022940F08B822046FFF76C
:104E6000CBFCD9F800302046DB689847E2689369AC
:104E700043F00053936116F020061CBF01273E4605
:104E8000D4F8CC3066F3451AC3F800A048EA070806
:104E9000029B9A060AD5244B20461B684FF0010856
:104EA0009B6898474FF00052E3685A61019B9B0250
:104EB0007FF5D3AED4F890104FF001080B68C3F320
:104EC000056262F03F0262F31F634FF400120B6051
:104ED000E3685A61C1E6AD00ADB29D4205D9E26812
:104EE0009DB2936923F0200393612B460022204654
:104EF000D4F8BC11D4F8C061FFF72CFBD4F8BC3156
:104F000003362B44C4F8BC31D4F8C031C6F38F0645
:104F10005B1BC4F8C031D4F8C4312B44C4F8C4318D
:104F2000E368DB6A079329E7A8000020AD00ADB273
:104F30009D4205D9E2689DB2936923F08063936135
:104F40002B4600222046D4F8BC11D4F8C061FFF7EC
:104F500001FBD4F8BC3103362B44C4F8BC31D4F87F
:104F6000C031C6F38F065B1BC4F8C031D4F8C4311E
:104F70002B44C4F8C43163691B69079317E7039A8C
:104F80003241D50740F19A80D9F800502B681804B7
:104F900040F11981AA68EB682F6802EA030B1BF045
:104FA000040F5B463A465FFA8BF117D00421A960E3
:104FB000D9F80000C16841F00201C1601BF4007F14
:104FC00045D0D9F80020D36843F00203D3602046CF
:104FD000F1B2FFF7B4FD4FF4007307E111F02000C8
:104FE00002D02021A960E9E7090717D54FF0050C89
:104FF000E96860F3041341F00201E960A11981F846
:1050000090C11021A96008212046A960F1B2049343
:105010000597FFF794FDDDE90432CFE71BF4806FBD
:10502000CCD0E968204641F00201E960F1B2CDE957
:1050300004B7FFF784FDDDE9043210210820A960E0
:10504000A11981F890014FF48061A960B6E7D9B247
:1050500013F0010346D0E378012B0CD1D9F80030CE
:105060001A69DAF8C031C2F312029A1A06F154032F
:1050700004EB83035A604FF001030022A11981F869
:10508000903106F1460344F8232001237A03AB60F4
:10509000C7F3074318D4D9F800202046D368F1B2EB
:1050A00043F00203D360FFF74AFD1023AB609AF888
:1050B000C83183F001038AF8C8310123013609F1B0
:1050C00004090AF1200A8AE603F00C030C2BF4D140
:1050D000D9F8003047F000521A604FF0010381F810
:1050E0009F31EAE7880733D5D9F80010CA6863F31F
:1050F0004102CA60A31993F89021012AD1B203D1C9
:1051000083F89F11022371E093F89021052A03D1BF
:10511000042283F89F21F5E793F89021062A03D013
:1051200093F89021082A06D1002106F1460244F89E
:1051300022100322EDE7C7F3074707F00C070C2FF7
:10514000E0D19AF8C83183F001038AF8C831D9E771
:1051500008060FD5D9F800202046D368F1B243F0F5
:105160000203D3600622A31983F89021FFF7E7FC1E
:1051700080233BE0CB06A0D5C7F3074B0BF00C0315
:105180000C2B0DD1D9F80010CB6843F00203CB6093
:10519000E3782BB92046F1B20492FFF7D0FC049AD1
:1051A0000321A31983F8901110231BF0040FAB60A7
:1051B00083D1C7F30567D9F8003067F07F0767F33D
:1051C0001F621A6079E7A968EB68286819404F07E1
:1051D000CBB208D50423AB60D9F80020D36843F0E4
:1051E0000203D36069E79A0602D52023AB6064E727
:1051F000C1F3072212F0020704D0EB6843F0020368
:10520000EB60E4E613F0010F13D006F1460344F817
:105210002370EB68204643F00203EB60F1B2FFF726
:105220008EFC01234FF00102AB60A31983F890219B
:1052300043E713F008070ED00823AB60D9F800202D
:105240002046D368F1B243F00203D360FFF777FC46
:105250000522A319EAE713F0100F12D006F1460356
:1052600044F82370EB6843F00203EB60E3781BB96A
:105270002046F1B2FFF763FC10230322AB60A319B1
:10528000D4E70F060CD5EB68204643F00203EB6031
:10529000F1B2FFF754FC0622A31983F8902167E7C7
:1052A000590613D5002206F1460344F82320EB6883
:1052B00043F00203EB60E3781BB92046F1B2FFF73D
:1052C0003EFC40230422AB60A319AFE712F00402B6
:1052D00010D0EB68204643F00203EB60F1B2FFF719
:1052E0002EFC10230822AB60A31983F890214FF401
:1052F00080637BE79F077FF5E0AEEB68A71962F359
:105300004103EB6097F89031012BDAB20FD1C0F373
:10531000074000F00C00082887F89F217FF4F2AEC8
:105320009AF8C93183F001038AF8C931EAE697F89F
:105330009031032B03D1022387F89F31E2E697F8DF
:105340009031042B08D19AF8B431012BF3D12046C7
:10535000F1B2FFF713FCEEE797F89031052B01D17E
:105360000423E9E797F89031062B7FF4CBAE0323B3
:10537000E2E74BF680316269012B51603FF471AD79
:1053800001216BE5D9F8003020461B69984772E58A
:105390000123C0F81031002070470123C0F81431F8
:1053A0000020704703460020C3F814017047002016
:1053B000704738B5044600250021FEF747FF4FF03F
:1053C000FF32E36820469D61E3685A61FFF780F988
:1053D0002846C4F8105138BD38B54FF080730B60C3
:1053E00001230B7740238B714FF4807305460C46E5
:1053F0000B84097900F032FB2846617900F02EFB1E
:10540000002038BD2DE9F041144605461F460E46E2
:10541000DDF81880FEF708FF0020FEF718FF214690
:105420002846FFF7D9FF31462846C4E92378FFF71D
:10543000B9FBD4F890301B6898472846BDE8F04186
:10544000FEF7FABE0B1F012B10B5044606D8D0F8A4
:1054500090305B6C98470C23237010BD0629FCD15B
:10546000BDE810400C230370D0F890301B6818473B
:1054700038B500238B740B7F0C46013B0A2B21D8D7
:10548000DFE803F0060D30374D5A676E8797A400AA
:105490004A79143100F019FB0223237712E049798D
:1054A000FFF7BBFB012816D1628B94F914305AB177
:1054B000002BB4BF0323052341F2883123774A48E8
:1054C000FEF7CAFE002063E0002BB4BF09230723C8
:1054D00032212377F3E7032801BF0B23237705232A
:1054E000A374EFE70B798A89896800F025FB042310
:1054F000D3E70979FFF791FB012806D10923237728
:105500003948FEF7B9FE40B9DCE7042803D16378D7
:1055100023700C23C1E70328F2D10B23BDE701223E
:105520004B7900EB431383F8C9214B798A89896849
:1055300000F0E1FA0623B0E74979FFF76EFB012896
:1055400001D10723A9E70428E1D002283AD1052395
:10555000A3E700220B79114600F0EEFA08239CE73E
:105560000979FFF75AFB0128054603D163782370B8
:105570000D2392E70328D0D01B48FEF77DFE0028BC
:10558000CBD1042D9ED16378032023700C23237785
:1055900038BD4B7900EB431393F8C92182F0010227
:1055A00083F8C92100224B79114600F0A4FA0A239E
:1055B00073E74979FFF731FB0128D7D0022801D1E1
:1055C00009236AE703287FF47DAFA6E78B7B0133CD
:1055D000DBB2022B8B7301D801235EE708238B74A7
:1055E0004B7802200B70D3E744200020022370B5D3
:1055F00094B005460C468DF80F30FFF708FBB8B99C
:105600002378002B3AD12846FFF701FB002800F051
:105610009D80012364202370FEF71CFE2846FFF7BF
:10562000F1FAD4F89030DB6814B0BDE87040184748
:105630002846FFF7EFFA0028E2D023780C2B00F27F
:10564000858001A252F823F007560008C3560008CF
:10565000DB560008855600084D57000851570008D2
:1056600029590008435900086359000805590008E2
:105670004D5700084D57000871590008032B01D001
:1056800003232370D4F890301B699847214628469D
:10569000FFF7A2FED4F890305B689847D4F88C30BE
:1056A00004F1200128465B689847284600F0E4F999
:1056B000002301212846237014B0BDE87040FFF795
:1056C00071BAD5F81431012B40D102233220237056
:1056D00014B0BDE87040FEF7BDBDD4F890309B68B3
:1056E00098470021284600F09FF9802160712846E4
:1056F00000F09AF920712846FFF784FA064628BB85
:10570000D4F89030DB6898472846FFF775FA0523F0
:10571000C0B22370D4F8903084F821009B69984778
:10572000A37994F82020CDE90063217994F8213001
:10573000284600F031F9A3792846CDE9006394F8B2
:10574000202094F82130617900F026F914B070BD62
:10575000A378092BFAD8DFE803F0052434586578DC
:1057600091AAC3CE08222146284600F0C5FE06466F
:105770000028EBD1012294F829306179CDE90003AA
:10578000A371A27003460246284600F02EF9A379C1
:105790003246CDE9006333462179284600F025F9E9
:1057A000D4E712222146284600F0A6FE0028CDD1DB
:1057B000D4F8903004F12200DB6998470223A370EB
:1057C000C4E701222146284600F00CFF06460028C7
:1057D000BCD10220FEF73EFD012384F82030D4F82E
:1057E00090301B6A9847032394F820202179A370F6
:1057F00028463346CDE9006600F0F7F83346CDE998
:10580000006694F820206179C7E7092221462846DE
:1058100000F0EAFF002899D1E38EB3F5806F95D8A8
:105820000423CCE721462846E28E00F0DDFF002865
:105830008CD1D4F8903004F150025B6A04F13E013F
:1058400004F1340098470523B9E794F8302082B179
:10585000402321460093284604AB00F095FE002823
:105860007FF474AFD4F8903004A89B6A984706235D
:10587000A5E7D4F8903047489B6AF7E794F83120C1
:1058800082B1402321460093284604AB00F07CFE01
:1058900000287FF45BAFD4F8903004A8DB6A984707
:1058A00007238CE7D4F890303A48DB6AF7E794F89E
:1058B000322082B1402321460093284604AB00F0F9
:1058C00063FE00287FF442AFD4F8903004A81B6B2D
:1058D0009847082373E7D4F890302E481B6BF7E7FE
:1058E0002146284694F8392000F087FE00287FF4EE
:1058F0002DAF092363E7D4F890305B6B98470923F9
:10590000237023E7D4F890309B6B984701287FF4ED
:105910001DAFD4F88C30214628461B6898470028D4
:105920007FF414AF0623EBE7D4F88C3021469B6854
:10593000284698478DF80F009DF80F304BB9072384
:10594000DEE7D4F88C3021462846DB6898478DF88E
:105950000F0020469DF80F1014B0BDE87040FFF70F
:1059600071BD2146284614B0BDE87040FFF780BDE8
:1059700021462846FFF730FDD4F890305B68984701
:105980002846D4F88C3004F120015B6814B0BDE8DF
:10599000704018478E75000870B501F5E47430F852
:1059A00014504C1D00EB441405F07F06C5F3C015E0
:1059B00084F81251002584F810219DF8102084F8F5
:1059C000116184F81521BDF8142084F81331A4F86E
:1059D000162100EB4112A2F8C85113B9012384F833
:1059E0001431FEF78EFF002070BD70B54C1DBDF860
:1059F00014501AB100EB441686F8102100EB441243
:105A0000B2F81661AE4202D00DB1A2F8165100EB09
:105A1000441494F813219A4202D00BB184F8133144
:105A2000FEF76FFF002070BD002330B500F56474F1
:105A300034F9025BDAB2002D0ADB6FEA41416FEA0A
:105A4000514103F5E47392B220F81310D0B230BD87
:105A50000133082BECD14FF6FF72F7E707299CBF03
:105A600000EB4101B1F890334FF000009CBFC3F34D
:105A70000E03A1F89033704703460020C3E9E50008
:105A8000C3F89C037047C87810B5012805D00228D8
:105A90004FF001030BD018460FE00C788B814C704F
:105AA000082402230C708A600877CB7005E00A7F17
:105AB0000D2A03D10020CB70087710BD0B2AF4D03B
:105AC0000C2AE8D10320CB70F7E738B50025541D28
:105AD00000EB441484F8125100EB4214C4F8BC11DA
